:020000040800F2
:1000000010090020E5010008811B00087F1B000883
:1000100000000000000000000000000000000000E0
:10002000000000000000000000000000851B000828
:100030000000000000000000831B0008871B000870
:10004000F7010008F7010008F7010008F7010008B0
:10005000F7010008F7010008F7010008F7010008A0
:10006000F7010008F7010008F7010008F701000890
:10007000F7010008F7010008F7010008F701000880
:10008000F7010008F701000800000000F701000870
:10009000F7010008F7010008F7010008F701000860
:1000A000F7010008F7010008F7010008992200088D
:1000B000F701000800000000F701000800F002F856
:1000C00000F080F812A030C8083824182D18AC426F
:1000D00001D100F077F80FCCA246AB460CA730CF89
:1000E0002D1B083F3F197C427F1E54442D090426D6
:1000F000F441641EAC4201D300F064F8012633429F
:1001000000D0FB1A3343984754465D46DFE70000B2
:100110009C260000BC260000103A02D378C878C1A3
:10012000FAD8520701D330C830C101D504680C6039
:1001300070470000704700000023002400250026BF
:10014000103A01D378C1FBD8520700D330C100D593
:100150000B60704710B5692902D100F0D7F810BDC7
:10016000642902D100F0D2F810BD752902D100F047
:10017000CDF810BD6F2902D100F05CF910BD7829CF
:1001800002D100F07FF910BD0368DB0901D38023A1
:100190001943632902D100F009FB10BDE32902D104
:1001A00000F01BFB10BD002010BD1FB500F07EFB52
:1001B00004000020002102F0A1FA401C60601FBD75
:1001C00010B510BD00F052FB1146FFF7EEFF02F034
:1001D00007F900F06FFB03B4FFF7F2FF03BC00F078
:1001E000CDFB00000748804707480047FEE7FEE7D1
:1001F000FEE7FEE7FEE7FEE704480549054A064B31
:10020000704700008F1B0008BD000008100300208D
:100210001009002010050020100500200FB41CB5A7
:10022000084B06AA7B4469460090059800F09BFAAB
:1002300004460020694600F0A9FA20461CBC08BC10
:1002400004B018476505000070B50446856900686C
:10025000C10601D5302600E02026C00707D070BDBA
:1002600062683046A1689047206A401C20626D1E7B
:10027000F6D570BD70B5044685690078C00707D112
:1002800070BD6268A16820209047206A401C2062EF
:100290006D1EF6D570BD09684A0501D540B270479C
:1002A000C905FCD500B2704709684A0501D5C0B23E
:1002B0007047C905FCD580B2704770B50C4605463D
:1002C000012A05D02878800600D5EA69002302E0DB
:1002D000012305E05B1C934202D2E05C0028F9D1C7
:1002E000A869E618C01AA861286AC01828622846BA
:1002F000FFF7AAFF04E06A682078A968641C9047A9
:10030000B442F8D32846FFF7B5FF70BDF7B5002516
:1003100075291068009914A611D0FFF7BCFF0028BA
:1003200002DA404211A608E0009909688A0701D55F
:100330000FA602E0490704D50EA6012501E0FFF74C
:10034000B3FF009F0024243704E000F073FA30313B
:100350003955641C0028F8D12B46324621460098B6
:1003600000F0A3F9FEBD0000000000002D00000019
:100370002B00000020000000F7B50446154686B0AB
:100380002B487844002703C83E460090019111E0B5
:1003900007986A467100415A02A800F02AFA411CE7
:1003A00007D02178890603D5E269391891420ED821
:1003B0003F18761C2078800602D5E069B84206DD39
:1003C000AE42E5DB07987100405A0028E0D1A069F1
:1003D000C01BA0612046FFF737FF154878445A3804
:1003E00003C800900020019116E041006A4607987A
:1003F000415A02A800F0FDF90590401C0AD00025E2
:1004000005E0626802A8A168405D90476D1C0598F0
:100410008542F6D30498401CB0420490E5DB206A84
:10042000C01920622046FFF725FF09B0F0BD00008B
:10043000A223000070B5044621461068FFF734FF80
:1004400000212546243505E04207C008520F30320E
:100450006A54491C0028F7D12068002307A2050729
:1004600008D520252840084304D0E069012304A2D0
:10047000401EE061204600F018F970BD0000000049
:100480003000000070B504460D4621461068FFF7A5
:100490000BFF2188090502D50F4A7A4402E00E4A73
:1004A0007A440E3223460021243305E00607000972
:1004B000360F965D5E54491C0028F7D12078002342
:1004C000000705D5702D03D0002901D00223113279
:1004D000204600F0EAF870BD92220000F3B5044611
:1004E000002081B020622046E1688847002872D051
:1004F000252802D06268A168ABE0594F00267F44EE
:100500002046E16888472028054608DB312D06D2C1
:10051000781920380078002801D00643F0E7B007AA
:1005200001D5042086430020E0610746A0612A2D02
:100530000AD0284602F0DBF8002827D0B8000019BE
:10054000303D0090856119E00298BA00121902C886
:10055000916102902046E1688847012F054617D136
:10056000E06900281FDA202086431CE000980A2159
:100570008069484300994019303888612046E16815
:100580008847054602F0B3F80028EFD1012F0AD0C2
:100590002E2D08D12046E1688847054620200643D5
:1005A0007F1C022FC3DBA069002803DA4042A06150
:1005B00001200643F00701D0102086436C2D0BD09C
:1005C000682D09D04C2D3CD06A2D38D0742D38D0F0
:1005D0007A2D36D016E040E0E1682F462046884765
:1005E000B842054609D16C2F29D001208002E1686C
:1005F000064320468847054604E06C2F1DD0FF20A7
:1006000001300643002D28D028464138192803D848
:100610000120C00206432035204626602946029A62
:100620001646FFF797FD002810D001280BD0F61DC5
:10063000F008C0000830029055E74020E1E7802034
:10064000D5E70020D3E7361D02964CE762682846BE
:10065000A1689047206A401C44E7206AFEBD000064
:100660005622000001E004C0091F0429FBD28B07B9
:1006700001D50280801CC90700D002707047002994
:100680000BD0C30702D00270401C491E022904D3BC
:10069000830702D50280801C891EE3E70022EEE773
:1006A0000022DFE7704770477047FFB504460D46EC
:1006B00081B0243000902168880604D51022E069BA
:1006C0009143216000E00120A84201DD471B00E0CA
:1006D00000270498A1697A191018081AA0612078D7
:1006E000C00602D42046FFF7AFFD002608E00398BD
:1006F0006268A168805D9047206A401C761C206279
:1007000004988642F3DB2078C0060AD52046FFF71E
:100710009BFD06E06268A16830209047206A401C7B
:10072000206238467F1E0028F4DC07E000986268EB
:10073000A168405D9047206A401C206228466D1EDB
:100740000028F3DC2046FFF795FD2078000602D54F
:10075000022005B0F0BD0120FBE7000001694A1C42
:1007600002610878704700B58FB0029100210591B1
:100770000549019379440391114604906846FFF7B7
:10078000ADFE0FB000BD0000E5FFFFFF0A6810706E
:10079000521C0A60704710B54369002B02D0C04656
:1007A000C04601E0FFF789FD012010BD1278014627
:1007B00024310A7000224A700122ECE711680022FD
:1007C000D243E8E710B54369002B02D0C046C046CB
:1007D00001E0FFF7D1FD012010BD12880146243150
:1007E00082840022C2840122ECE711680022D243F5
:1007F000E8E7F8B516460C46054600F02FF8036802
:10080000FF200230C05C012807D0FF2C0FD8185DF4
:1008100000280CD001202C70F8BDFF333246214651
:1008200008331868C71828460023B847F8BD0020C9
:10083000C043F8BD01468008081A02091018020AD0
:100840001018020C1018C008820012185200891AE1
:1008500001E0401C0A390A29FBD2704710B500F0AC
:1008600025F8001D10BD00BF951E0000754600F064
:1008700029F8AE46050069465346C008C0008546C3
:1008800018B020B5FFF7B8FC60BCB64600260027BC
:10089000C0C5C0C5C0C5C0C5C0C5C0C5C0C5C0C530
:1008A000403D490849008D467047000000487047A8
:1008B0003000002010B50446C046C0462046FFF771
:1008C0008AFC10BD004870471000002082078B078B
:1008D0009A423FD170B5920F0AD0032402780B7868
:1008E000401C491C002A33D09A4231D12042F5D114
:1008F000214EF40104C808C9951B9543254018D121
:100900009A420FD104C808C9951B9543254010D1C0
:100910009A4207D104C808C9951B9543254008D1C0
:100920009A42E7D012BA1BBA01209A4200D2404242
:1009300070BD12BA1BBA2DBA18241000E04019007D
:10094000E140401A05D12E00E64002D1083CF4D126
:10095000D01A70BD02780B78401C491C002A09D0BF
:100960009A4207D102780B78401C491C002A01D01A
:100970009A42EFD0D01A70470101010101491820B5
:10098000ABBEFEE726000200704710B501462031DD
:100990004A78022A12D1026813680E24A343136016
:1009A00013680124A3431360C26B006C2346834089
:1009B00053604C70002000220A7010BD0422826334
:1009C000012000220A7010BDB0B5014620314A78DE
:1009D000022A16D1026813680E24A3431360136819
:1009E0000125AB431360C26B036C2C469C405460E2
:1009F00000240C704D70416B002900D088472046C0
:100A0000B0BD042181630120B0BD0000F0B58CB001
:100A100005900C68002C00D1CBE06748059A824213
:100A200001D0052000E00320009020320192002335
:100A30001D460A9309910CE032433A605B1C0C6836
:100A40002046D8400A9A121D0A92AD1C002800D1F7
:100A5000AFE0012706979F403C400794EED00293F9
:100A600003242246AA40D0432B464D682E462640FA
:100A7000721E012A0495039313D808900598826882
:100A8000089C2240CC689C4014438460EA06D20F44
:100A9000029B9A404468BC430746089814437C6014
:100AA00007E0032E059F029B03D126460499039D70
:100AB0001FE0FA68024009998C68039DAC4014431A
:100AC000FC60022E049914D11C2108900A98014060
:100AD0000F228A40DC08A400019806599643099F1A
:100AE0003A698A403243025108987968059F032683
:100AF0000E40AE403A68024032433A608903890FA3
:100B000009999BD059480168069E314301600168EC
:100B100031400B910322194691430B9A28480491C6
:100B2000085808900922D2060598904209D0254A13
:100B3000904207D0244A9042009E204F03D10226C3
:100B400001E000261D4F0C220A9802400F24944019
:100B50000899A1431A48049C201896400E43066049
:100B6000BC6809994868C20210D5079E3443BC602E
:100B7000FC68820210D4B443FC607C68820310D409
:100B8000B4437C603A68C00311D555E7079EB4436F
:100B9000BC60FC688202EED53443FC607C68820352
:100BA000EED534437C603A68C00300D544E7B243D5
:100BB00043E70CB0F0BDC046000C00480004014003
:100BC000080001400004004800080048054800688B
:100BD0007047C0461A48007802490A681018086031
:100BE0007047C0460803002080B5CA48016810223B
:100BF0000A430260032000F005F800F023F800200B
:100C000080BDC04670B504467D20C0000C4E3178D2
:100C100001F072FC0146C748006801F06DFC00F06D
:100C2000B3FB0125032C08D8002806D10025E84392
:100C300021462A4600F028F87460284670BDC04658
:100C40000000002082B009480168012211430160C0
:100C50000168114001910199110742680A434260FD
:100C6000406808400090009802B070471810024099
:100C7000002805D41F21084001218140014801605E
:100C80007047C04600E100E0002805D40322034677
:100C900093430A4A9A1803E00C220240064BD218EA
:100CA0008007C00E8901C9B28140FF2383401068CC
:100CB000984308431060704714ED00E000E400E042
:100CC000F0B587B004468078C007424F4FD001206E
:100CD000059001073A1F10680840049006D110687B
:100CE000084310601068084006900698029203912D
:100CF000394F3868C00512D4059806023868304369
:100D00003860FFF763FF05463868304207D1FFF7C8
:100D10005DFF401B6428F7D9032007B0F0BD032016
:100D2000019000022B4F3968014012D062680240E6
:100D300091420ED00598000439683A6802433A603F
:100D40003A6882433A600846244A10403860C8072F
:100D500030D13868214908406168014339600498FE
:100D6000002804D1029A1068039988431060216812
:100D7000C80706D188060CD40020490512D407B054
:100D8000F0BD386903229043A26802433A618806A5
:100D9000F2D5386910229043E26802433A6100209C
:100DA0004905ECD539694022914322690A433A61E9
:100DB00007B0F0BDFFF70AFF0546574E38688007B9
:100DC000C7D4FFF703FF401BB042F7D9019807B023
:100DD000F0BDC0462010024000700040FFFCFFFF45
:100DE000F0B581B000284DD00D460446494B186837
:100DF00001210840A84208D21A68012082432A43F0
:100E00001A601A680240AA424FD1206882075B4BE1
:100E100010D5420706D5072212021B681343574A12
:100E20001360564B1A68F0239A43A3681343534A3E
:100E30001360524BC00728D1364A11680120014087
:100E4000A94205D91168814311601168C9072CD1E5
:100E50002078400706D50720000219688143E06822
:100E60000843186019680C220A404548082A17D11F
:100E70008A02120F434B9C5C404B9A6AC90333D4DD
:100E8000424838E0012001B0F0BD6268181F0068D8
:100E9000022A07D0012A0AD18003084605D509E0B5
:100EA000044629E08001084604D401B0F0BD800763
:100EB0000846FAD51868032100918843104318604A
:100EC000FFF784FE0646144F2C4B18680C21014096
:100ED000606880008142AFD0FFF778FE801BB84287
:100EE000F2D9009801B0F0BD0F210A402649895C73
:100EF00001F002FB214B444318680006000F07492C
:100F0000085CC4400B4804600320FFF77BFE002010
:100F100001B0F0BD002002408813000069270008DE
:100F200004480068154909684905490F024A515C9F
:100F3000C8407047080000207927000810B50F4905
:100F40000B680C2018400E4A082809D19802000F9F
:100F50000C4C205C896ADB0304D40C49484310BD67
:100F6000104610BD0F231940074B595C044610462C
:100F700001F0C2FA01462046484310BD0410024069
:100F800000127A00812700089127000800093D001F
:100F9000F0B587B004460120002C00D1ECE10490AC
:100FA0002078C007F54E05940CD071680C200140E4
:100FB000042900D08AE03068800303D560680028E7
:100FC00000D1D8E0207880071CD570680007800F1A
:100FD00009D070680C210140082900D08EE07068AB
:100FE000C00300D58AE030688007059C03D5E0681F
:100FF000012800D0BFE03068F82188432169C9008A
:1010000001433160059C2078000724D420784007F4
:1010100036D42078C00600D4CCE0706B05994969BD
:101020004A1D00D1BBE0012900D00AE10421084398
:101030007063706B012101437163FFF7C7FD0546C3
:10104000706B800700D5ADE0FFF7C0FD411B0320AA
:101050000229F5D990E1706AE169002979D001216E
:1010600008437062FFF7B2FD0546706A8007CDD471
:10107000FFF7ACFD401B0228F7D9032007B0F0BDF5
:10108000012003900107F0690840029006D1F06941
:101090000843F061F0690840069006980191B84F46
:1010A0003868C00541D4039804023868204338608A
:1010B000FFF78CFD05463868204236D1FFF786FDE4
:1010C000401B6428F7D9032007B0F0BD71680140C8
:1010D000082903D17068C00300D56CE762683068E6
:1010E00001214F04002A00D1F9E0052A00D1EFE0E8
:1010F000012A00D009E1090408430CE13068059C8D
:10110000E16800293AD0012108433060FFF75EFD15
:1011100005463068800700D56DE7FFF757FD401B97
:101120000228F6D9032007B0F0BD05988168306A1F
:10113000944F002900D1ADE0052900D195E00129A7
:1011400000D196E0039988433062306A04218843D5
:1011500091E0012188437062FFF738FD0546706A0F
:10116000800700D452E7FFF731FD401B0228F6D973
:10117000032007B0F0BD049807B0F0BD01218843FB
:101180003060FFF723FD05463068800700D439E75B
:10119000FFF71CFD411B03200229F5D9ECE00421D7
:1011A00088437063706BF821884305998969C90089
:1011B000014371630598046A002C1ED070680C21ED
:1011C000014008291CD1012C049800D1D4E0012051
:1011D000030471680B40F26A059D6C6AA34200D05B
:1011E000CAE00F231A40EC6AA24200D0C4E09A047D
:1011F0001140AA6A914200D0BEE0002007B0F0BDC5
:101200000120020631680492914331604706FFF7DE
:10121000DDFC0546022C0AD13068384200D18AE054
:10122000FFF7D4FC411B03200229F5D9A4E0306864
:101230003842E2D0FFF7CAFC411B03200229F6D94D
:101240009AE0042108437063706B01218843706346
:10125000FFF7BCFC0546706B8007ABD5FFF7B6FC0B
:10126000411B03200229F6D986E00421084330629D
:10127000306A039908433062FFF7A8FC0546306ADC
:1012800080071BD4FFF7A2FC401BB842F7D903200C
:1012900007B0F0BD039988433062306A0421884367
:1012A0003062FFF793FC0546306A800706D5FFF7EA
:1012B0008DFC411B0320B942F6D95DE0029800285D
:1012C000059C00D0A5E6F06901998843F061A0E68D
:1012D0008A04104330600904306808431BE00A04A4
:1012E000904330608804316881433160FFF76EFCC1
:1012F0000546059C3068384200D163E6FFF766FC7E
:10130000411B03206429F5D936E00A04904330607C
:101310008904306888433060FFF758FC0546306820
:10132000384200D04EE6FFF751FC401B6428F6D946
:10133000032007B0F0BDF06A0F218843059AD16AF7
:101340000143F1623D20000471688143906A0843C3
:10135000516A014371603068049908433060FFF7B7
:1013600035FC04463068384200D046E7FFF72EFCD3
:10137000011B03200229F5D907B0F0BD001002407F
:101380000070004088130000401E010E01D00120B3
:1013900070470749074A5060074803680B4003211C
:1013A000890759180160002090600721116070477B
:1013B000FFFFFF0010E000E020ED00E07047704705
:1013C00070470000F0B587B003460168CD690C682E
:1013D0002020049402900440624262410120069061
:1013E000C7023E462F362E40203E701E86411643D1
:1013F0008E6857D003938033019738460F30059598
:101400000542049D07D0E7482840012732463A406C
:10141000101800D09BE01024284620404742474146
:101420000398006E0128069A44D00598C006069FCE
:1014300045D4002F46D00124A005064072427241D7
:101440000598C002069E039800D51646002E00D1CE
:101450008CE080222A4051425141059B1A06069A8F
:1014600000D50A46002A00D190E140210D406A4291
:101470006A415B0600D50692069A002A00D009E16F
:10148000EFF3108584F31088026813688B431360B0
:1014900085F310880021C1660299C16700F06EFBD8
:1014A00007B0F0BD996E002900D1F3E018468847D7
:1014B00007B0F0BD3A460598C006069FB9D5174655
:1014C000002FB8D1039F3D4658350C62886840060E
:1014D00052D4698828886A88002A00D1DAE08842D4
:1014E00000D1D7E00693EFF31083012282F3108836
:1014F00009256D013E68059139463768AF4337606D
:1015000083F31088EFF3108382F310880D68AE68C0
:101510009643AE6083F31088029B069D2B600023E8
:101520008B660B66EFF3108382F310880A681568E8
:10153000A543156083F3108802224A66059A801A33
:1015400082B208461146FFF739FF07B0F0BD3802F6
:101550002840464246410598C00706985CD10028BD
:101560005DD00097059DA80761D469E022050A6255
:10157000FFF725FF07B0F0BD786F016849688AB2B0
:10158000002A00D186E01E462B889A4200D381E0D3
:1015900069808069202834D0EFF31081012080F326
:1015A0001088824A203206963B681E6816401E60EC
:1015B00081F31088EFF3108180F310883A68936804
:1015C0008343936081F31088EFF3108180F31088D8
:1015D0003A6893684026B343936081F31088029978
:1015E000069A116000213966EFF3108180F31088AC
:1015F00038680268A243026081F31088786FFFF7B1
:10160000C4F90220786628886988401A81B2384671
:10161000FFF7D4FE07B0F0BD30460028A1D10F621D
:101620005868384358600097059DA80708D5002AD8
:1016300006D0022008625868042606435E60059DB5
:101640006807019F07D5002A05D004200862586862
:10165000022606435E602243564256410598000723
:10166000069A009D00D53246002A04D1082008625F
:101670005A6802435A60A806049D05406A426A41BE
:10168000059E3E42069D07D1002D08D058680028CF
:10169000039D0DD107B0F0BD1546002DF6D10F62A8
:1016A0005868029A1043586058680028039DF1D08A
:1016B0000298064062426241002E00D006920698CF
:1016C000002809D1AA6E002A06D02C4628461D46BD
:1016D00090472B4625462168586828220240886892
:1016E0004021084080181E4606D12846FFF768FEB4
:1016F0000020706007B0F0BDEFF31080009F87F30B
:101700001088092252012B681C6894431C6080F3E6
:101710001088EFF3108087F310882A689368BB4322
:10172000936080F31088286E01280BD1EFF31080AE
:10173000009A82F310882A6813681024A343136068
:1017400080F310880298306000202866A866286818
:101750008068400621D5EFF31080009A82F310884C
:101760002A6893688B43936080F31088696F00291F
:1017700013D00D4848630846FFF726F9002800D12A
:1017800088E7686F416B884707B0F0BDC16E0029DC
:1017900000D17FE7884707B0F0BD2846FFF710FE6D
:1017A00007B0F0BD20010004351D0008DFFEFFFF7B
:1017B000B0B500281DD00446C06F002805D17820A0
:1017C00000212154204600F02BF82420E0672068F7
:1017D00001680125A9430160606A002802D0204603
:1017E00000F0D6F9204600F081FB002803D02846FF
:1017F000B0BD0120B0BD0920C00221684A68824303
:101800004A6088682A22904388600868012202435F
:101810000A60204600F026FA05462846B0BD0000C2
:10182000B0B586B000240594049403940294019406
:1018300000681749884201D006B0B0BD154841681C
:1018400001220592930319434160416819400091B8
:101850000099510402680A43026000680840009041
:10186000039402200290032004904002019000980B
:101870000920C00601A9FFF7C9F81B252846214603
:101880002246FFF701FA2846FFF7F2F906B0B0BD8D
:101890000038014014100240F0B581B08023C358D5
:1018A000202B12D1012400290CD0002A0AD00123B8
:1018B0001C038568A5420CD1CC070AD00469002C12
:1018C00007D11C46204601B0F0BD0224204601B0DD
:1018D000F0BD0024046605686D682D020AD5EFF39B
:1018E000108583F310889B06066837681F433760AE
:1018F00085F3108800F090FB204601B0F0BD000099
:10190000F0B581B0254F3878012844D1244D25A168
:1019100001222846FEF782FC82B2264E264C304633
:101920002946234600F064F87A7824A12846FEF779
:1019300075FC82B230462946234600F059F8BA7841
:1019400022A12846FEF76AFC82B230462946234689
:1019500000F04EF838787978BA783B1D07C3381D07
:10196000032100F09FFC002807D01C481C491D4A99
:101970002A606960A8600B2208E018481A491B4ACF
:10198000184B2B606A60A960E8600F22094804497F
:10199000234600F02DF801B0F0BDC04670000020D5
:1019A000080100205061636B61676531202D2D2D8A
:1019B0002569000080000020FFFF00005061636B7C
:1019C00061676532202D2D2D256900005061636B04
:1019D00061676533202D2D2D256900006563740036
:1019E000436F727242434320636F72724E6F742072
:1019F000F0B585B00446C06F202810D10120002921
:101A00000BD0002A09D001200503A668AE4209D1F7
:101A1000CE0707D02669002E04D105B0F0BD022004
:101A200005B0F0BD0193029127465037204684301F
:101A30000021039101602120E0671646FFF7C6F8F8
:101A400004907E803E80A068A84202D120690028D0
:101A50005ED0029D019E039A2168788800285ED09E
:101A6000701C454B2ED0002E49D00392C869000649
:101A700008D4FFF7ABF80499401AB04266D8216841
:101A80000868F3E7002D03D0287808856D1C07E06F
:101A9000039A1088384B18400885921C0392002541
:101AA0007888401E788078880028DFD137E0108859
:101AB00018400885921C00257888401E7880788818
:101AC00000282CD0C869000608D4C869000605D4CF
:101AD000C869000602D4C8690006F3D5002DE6D017
:101AE000287808856D1CE7E7108818400885921C47
:101AF00000257888401E7880788800280FD0C86933
:101B0000000621D5002DEFD0287808856D1CF0E760
:101B10000025029A019E216878880028A0D1CA6910
:101B20000020520613D4002E0ED0721C13D1CA69A5
:101B300052060CD4CA69520609D4CA69520606D4A0
:101B4000CA695206F3D502E0FFF740F803202021CE
:101B5000E16705B0F0BD0546FFF738F80499401A73
:101B6000B042F3D820680168C0694006F4D5284621
:101B70002021E16705B0F0BDFF0100007047FEE7DE
:101B8000FEE77047704780B5FFF724F880BD7047C7
:101B9000B0B5416A0A070CD4CA0714D18A071CD40D
:101BA0004A0724D4CA062CD48A0634D44A063CD424
:101BB0004CE00122D20303685C689443426B2243E9
:101BC0005A60CA07EAD00122520403685C68944351
:101BD000826A22435A608A07E2D50122120403680E
:101BE0005C689443C26A22435A604A07DAD50122EC
:101BF000920403685C689443026B22435A60CA06ED
:101C0000D2D50122120303689C689443826B22435D
:101C10009A608A06CAD50122520303689C689443DD
:101C2000C26B22439A604A0610D50122130502684E
:101C300054689C43056C2C4354609D4206D1032399
:101C40005B0554689C43436C23435360090607D5E6
:101C50000121C904026853688B43806C18435060AB
:101C6000B0BD0000F0B583B00446064678360025C6
:101C7000F560FEF7ABFF034620680168090721D530
:101C800002952B48009001256905002220461F4639
:101C900000F024FA002812D0EFF3108085F31088AA
:101CA00021680A6880239A430A6080F31088032021
:101CB00020227C21029D6250357003B0F0BD206867
:101CC0003B46029D0068400726D519480090012731
:101CD000B9050022204600F001FA00281CD0EFF3DD
:101CE000108087F3108809214901226813688B430B
:101CF000136080F31088EFF3108087F31088216859
:101D00008A68BA438A6080F31088032020228021E9
:101D10006250357003B0F0BD2020E067B0602566EA
:101D200064212A4628466250357003B0F0BDC04693
:101D3000FFFFFF0180B5406A0146523100220A814F
:101D400052214252FFF73CFB80BDF0B581B08021AB
:101D500041580268222910D1014658318B88928C53
:101D60001A40436D1A804A88521E4A809A1C426566
:101D70004A88002A07D001B0F0BD906908210143CC
:101D8000916101B0F0BD03468033EFF3108401226E
:101D900082F3108809256D0106683768AF43376004
:101DA00084F31088EFF3108482F310880568AE681E
:101DB0009643AE6084F3108820241C6000234366A1
:101DC00083660468646824020AD5EFF3108482F302
:101DD0001088950606683768AF43376084F310882B
:101DE000046E012C15D10366EFF3108382F3108883
:101DF0000468256810229543256083F310880368E2
:101E0000DC69E40600D51A620988FFF7D7FA01B049
:101E1000F0BDFFF775FD01B0F0BDF0B581B08021D8
:101E200041580268222911D1014658318B88928C81
:101E30001A40436D1A704A88521E4A80426D521CE5
:101E400042654A88002A07D001B0F0BD9069082198
:101E50000143916101B0F0BD03468033EFF310847C
:101E6000012282F3108809256D0106683768AF43A7
:101E7000376084F31088EFF3108482F310880568CC
:101E8000AE689643AE6084F3108820241C60002363
:101E9000436683660468646824020AD5EFF31084FD
:101EA00082F31088950606683768AF43376084F37D
:101EB0001088046E012C15D10366EFF3108382F3B2
:101EC00010880468256810229543256083F31088E4
:101ED0000368DC69E40600D51A620988FFF76EFA28
:101EE00001B0F0BDFFF70CFD01B0F0BDB0B5044688
:101EF000006801683E4A0A40A16823690B4365698E
:101F00001D431543E1690D43056003221203436835
:101F10009343E2681A434260A269236A13430B2287
:101F20001202856895431D438560324A904209D06C
:101F3000314A904208D1314800688007000F30A232
:101F4000135802E0002300E010230125EA03304883
:101F500091420FD1082B46D87B441B795B009F44EC
:101F600004422442194242422300FEF7D9FF0028CE
:101F70001BD137E0082B36D87B441B795B009F448C
:101F8000043225320E3232322400FEF7C9FF002817
:101F90001CD127E0FEF7D2FF002806D122E0FEF791
:101FA000CDFF002812D11DE01046400061684A08AC
:101FB000101800F0A1FA0246103A16498A4212D2CD
:101FC00001400007400F08430AE0104661684A08D4
:101FD000101800F091FA014610390E4A914202D2CF
:101FE0002168C86000250020A066E0662846B0BDD4
:101FF000F369FFFF00440040003801403010024008
:1020000000000000040000000800000002000000C2
:1020100000127A00F0FF0000B0B55823C2524165AB
:1020200000218166034658335A8084680246803214
:10203000002C09D001252D03AC420ED10469002CDF
:1020400008D1234C9C8009E00469002C02D07F2435
:102050009C8003E0FF249C8000E099805160222155
:102060001160EFF31082012181F3108803689C68EE
:102070000C439C6082F3108802690B0384689C42C5
:1020800004D1002A14D0134A826603E0114B836600
:10209000002A0FD0EFF3108281F310880921490143
:1020A000006803680B43036082F310880020B0BD12
:1020B000094A8266EFF3108281F310880068016894
:1020C00020230B43036082F310880020B0BDC0467C
:1020D000FF0100001B1E00084B1D0008F0B585B075
:1020E0001F4615460E460368D9693140891B4A428E
:1020F0004A410021AA4222D10A9C002C22D00391FD
:10210000611C24D1D9693140891B4A424A41AA4203
:1021100031D1D9693140891B4A424A41AA422AD168
:10212000D9693140891B4A424A41AA4223D1D9691F
:102130003140891B4A424A41AA42E3D01BE008468B
:1021400005B0F0BDFEF742FD032005B0F0BD402E06
:10215000049001D0802E14D1FEF738FDC01BA042A0
:102160000CD8049800680168C0693040801B414267
:102170004141A942F0D0039805B0F0BD032005B05D
:10218000F0BD7830019001200090C002029006E07E
:10219000C8693040801B41424141A942EBD1FEF762
:1021A00015FDC11B0320A1423ED8049909680A68A5
:1021B0005207EDD5CA69120738D4CA69029B1A4280
:1021C000E6D0029A0A62EFF31082012181F31088AF
:1021D00009235B01049C246825689D43256082F3E4
:1021E0001088EFF3108281F31088049B1B689C68B1
:1021F0008C439C60049B82F310881A6E012A0BD1D9
:10220000EFF3108281F3108819680B681024A34340
:102210000B60049B82F310882021019CA1600022A6
:102220001A669A662270E16005B0F0BD08250D625D
:10223000EFF31081009880F3108809225201049B6B
:102240001B681C6894431C6081F31088EFF31081B5
:1022500080F31088049A1268936883439360049B08
:1022600081F31088196E01290CD1EFF3108101223E
:1022700082F310881A6813681024A3431360049B28
:1022800081F310882021019A9160002119669966D6
:102290001170D56005B0F0BD80B58B48FFF792F89E
:1022A00080BDC046F0B583B00E46054602683D4F7E
:1022B0003DA13846FDF7B2FF82B23E483E4C39465A
:1022C0002346FFF795FB6A683C493846FDF7A6FFB1
:1022D00082B2384839462346FFF78AFB0295AA683E
:1022E00038463649FDF79AFF82B2324839462346CE
:1022F000FFF77EFB701E022E019009DB03210246D0
:102300000A400092B21E032A05D200210E4613E0B5
:102310000026029D22E002468A430021029B0C46D1
:10232000C0CB1D68586866407E406E40464008330A
:10233000091D8A423446F3D100980028029D0DD031
:1023400089006A585640012808D06A1851687140BF
:10235000022801D10E4601E096684E40114F18A1A7
:1023600038463246FDF75AFF82B2124C20463946B3
:10237000114BFFF73DFB019880002D58AE4201D074
:1023800014A100E011A138463246FDF747FF82B2A2
:1023900020463946084BFFF72BFB711B484248414A
:1023A00003B0F0BD0801002044617461202D2D2D83
:1023B0002569000080000020FFFF0000A127000821
:1023C000436865634B202564000000005452554566
:1023D0002025640046414C53452025640000000040
:1023E00096B0FEF701FC0AAD281D2C21FEF758F926
:1023F0000024129410200E9001260D9602200A90BF
:1024000005940494039402942846FEF7C1FD002825
:1024100003D0EFF3108072B6FEE709940894079496
:102420000720069006A82146FEF7DAFC002803D014
:10243000EFF3108072B6FEE70394019601A8FEF751
:102440003FFC002803D0EFF3108072B6FEE7B00522
:102450001C490A6802430A600A6802400A920A9804
:10246000720408681043086017480C234361046134
:10247000C4608460154B0360E1235B02436009681C
:102480008461C4610462446211400A910A99FFF7B1
:102490008FF9002803D0EFF3108072B6FEE70CA08E
:1024A00012490A4638C838C278C878C2064C1B227E
:1024B0000F4B2046FFF79CFA0E4903222046FFF7F8
:1024C000EBF9FEE7141002408000002000380140C4
:1024D00048656C6C6F20576F726C642E2053656E6C
:1024E00064205061636B6167650A0D00080100207C
:1024F000FFFF00007000002043088B421AD3002227
:1025000003098B4279D3030A8B425ED3030B8B42C0
:1025100042D3030C8B4227D30902FF2212BA030CC9
:102520008B4202D31212090203D0030B8B4233D326
:102530001AE0D3E0411A8041401C704703460B4328
:1025400071D443088B42F5D3002203098B4254D344
:10255000030A8B4239D3030B8B421DD3030C8B42EE
:1025600002D394466EE0090AC30B8B4201D3CB031E
:10257000C01A5241830B8B4201D38B03C01A5241C4
:10258000430B8B4201D34B03C01A5241030B8B42C6
:1025900001D30B03C01A5241C30A8B4201D3CB02B1
:1025A000C01A5241830A8B4201D38B02C01A524196
:1025B000430A8B4201D34B02C01A5241030A8B4299
:1025C00001D30B02C01A5241CDD2C3098B4201D3B1
:1025D000CB01C01A524183098B4201D38B01C01A2F
:1025E000524143098B4201D34B01C01A52410309A6
:1025F0008B4201D30B01C01A5241C3088B4201D355
:10260000CB00C01A524183088B4201D38B00C01A01
:10261000524143088B4201D34B00C01A5241411A28
:10262000524110007047CA0F00D04942031000D336
:102630004042534000229C4603098B422DD3030A9B
:102640008B4212D38901FC2212BA030A8B420CD3AB
:10265000890192118B4208D3890192118B4204D3D4
:10266000890137D0921100E08909C3098B4201D357
:10267000CB01C01A524183098B4201D38B01C01A8E
:10268000524143098B4201D34B01C01A5241030905
:102690008B4201D30B01C01A5241C3088B4201D3B4
:1026A000CB00C01A524183088B4201D38B00C01A61
:1026B0005241D9D243088B4201D34B00C01A524138
:1026C000411A00D201465241104663465B1000D3C6
:1026D0004042704763465B1000D3404201B5002181
:1026E000004201D0C9430846C046C04602BD30384A
:1026F0000A2801D2012070470020704710B5002938
:102700000AD00878002807D005487844FEF7DEF89C
:10271000002801D0002010BD0248784410BD000000
:10272000C2000000BA00000000000000000000002D
:1027300030313233343536373839414243444546F7
:1027400040305800303132333435363738396162F1
:1027500063646566403078000400000800000000F3
:102760000000000200010000100000000000000056
:10277000000102030406070809000000000102032B
:102780000402030405060708090A0B0C0D0E0F10BE
:10279000100102030405060708090A0B0C0D0E0FB1
:1027A00010446174612D2D2D25690000E02800087A
:1027B000000000201000000018010008F0280008A8
:1027C000100000200009000038010008100100007E
:1027D00043000000F8FFFFFF004040404040404001
:1027E00040404141414141404040404040404040E4
:1027F0004040404040404040400502020202020288
:1028000002020202020202020220202020202020D6
:1028100020202002020202020202909090909090EA
:1028200010101010101010101010101010101010A8
:10283000101010100202020202028888888888881C
:102840000808080808080808080808080808080808
:102850000808080802020202400000000000000010
:102860000000000000000000000000000000000068
:102870000000000000000000000000000000000058
:102880000000000000000000000000000000000048
:102890000000000000000000000000000000000038
:1028A0000000000000000000000000000000000028
:1028B0000000000000000000000000000000000018
:1028C0000000000000000000000000000000000008
:1028D00000000000000000000000000000000000F8
:1028E000010000000400000000127A000000000057
:04000005080000BD32
:00000001FF
