:020000040800F2
:10000000780600207D010008730A0008710A0008C4
:1000100000000000000000000000000000000000E0
:10002000000000000000000000000000770A000847
:100030000000000000000000750A0008790A0008AE
:100040008F0100088F0100088F0100088F01000850
:100050008F0100088F0100088F0100088F01000840
:100060008F0100088F0100088F0100088F01000830
:100070008F0100088F0100088F0100088F01000820
:100080008F0100088F010008000000008F010008A8
:100090008F0100088F0100088F0100088F01000800
:1000A0008F0100088F0100088F0100088F010008F0
:1000B0008F010008000000008F01000800F002F826
:1000C00000F04CF812A030C8083824182D18AC42A3
:1000D00001D100F043F80FCCA246AB460CA730CFBD
:1000E0002D1B083F3F197C427F1E54442D090426D6
:1000F000F441641EAC4201D300F030F801263342D3
:1001000000D0FB1A3343984754465D46DFE70000B2
:10011000740C0000940C0000103A02D378C878C127
:10012000FAD8520701D330C830C101D504680C6039
:1001300070470000704700000023002400250026BF
:10014000103A01D378C1FBD8520700D330C100D593
:100150000B6070471FB51FBD10B510BD00F02DF826
:100160001146FFF7F7FF00F08DFC00F045F803B4EF
:10017000FFF7F2FF03BC00F04BF800000748804790
:1001800007480047FEE7FEE7FEE7FEE7FEE7FEE77B
:1001900004480549054A064B70470000810A0008DB
:1001A000BD000008780000207806002078020020BA
:1001B00078020020704770477047754600F024F8B9
:1001C000AE46050069465346C008C000854618B0D3
:1001D00020B5FFF7DDFF60BCB64600260027C0C58E
:1001E000C0C5C0C5C0C5C0C5C0C5C0C5C0C5403DEF
:1001F000490849008D46704710B50446C046C046C0
:100200002046FFF7B4FF10BD0048704710000020E3
:1002100001491820ABBEFEE726000200704700002F
:10022000B0B5044600F0F4F80546601C02D09548CD
:100230000078041900F0ECF8401BA042FAD3B0BDDE
:10024000F0B58CB005900C68002C00D1CBE067486D
:10025000059A824201D0052000E003200090203260
:10026000019200231D460A9309910CE032433A6043
:100270005B1C0C682046D8400A9A121D0A92AD1CDD
:10028000002800D1AFE0012706979F403C4007942B
:10029000EED0029303242246AA40D0432B464D6859
:1002A0002E462640721E012A0495039313D8089007
:1002B00005988268089C2240CC689C401443846066
:1002C000EA06D20F029B9A404468BC43074608984E
:1002D00014437C6007E0032E059F029B03D1264652
:1002E0000499039D1FE0FA68024009998C68039DF8
:1002F000AC401443FC60022E049914D11C210890D8
:100300000A9801400F228A40DC08A400019806598F
:100310009643099F3A698A403243025108987968A6
:10032000059F03260E40AE403A68024032433A60D1
:100330008903890F09999BD05D480168069E314366
:100340000160016831400B910322194691430B9AD9
:1003500028480491085808900922D206059890422E
:1003600009D0254A904207D0244A9042009E204F4F
:1003700003D1022601E000261D4F0C220A980240FC
:100380000F2494400899A1431A48049C20189640D1
:100390000E430660BC6809994868C20210D5079EE2
:1003A0003443BC60FC68820210D4B443FC607C68B7
:1003B000820310D4B4437C603A68C00311D555E77A
:1003C000079EB443BC60FC688202EED53443FC60F7
:1003D0007C688203EED534437C603A68C00300D564
:1003E00044E7B24343E70CB0F0BDC046000C004800
:1003F00000040140080001400004004800080048D3
:10040000002A02D01822815070472822815070475C
:10041000054800687047C0461A48007802490A68D3
:10042000101808607047C0467000002080B57C48F6
:10043000016810220A430260032000F005F800F072
:1004400023F8002080BDC04670B504467D20C00062
:100450000C4E317800F082FB01467948006800F0CC
:100460007DFB00F0EBFA0125032C08D8002806D10B
:100470000025E84321462A4600F01CF8746028460F
:1004800070BDC0460000002082B00948016801220A
:1004900011430160016811400191019911074268FF
:1004A0000A434260406808400090009802B07047DC
:1004B00018100240002805D40322034693430A4A39
:1004C0009A1803E00C220240064BD2188007C00E97
:1004D0008901C9B28140FF238340106898430843D3
:1004E0001060704714ED00E000E400E0F0B581B06A
:1004F00000284DD00D460446494B1868012108409C
:10050000A84208D21A68012082432A431A601A6856
:100510000240AA424FD120688207424B10D54207C1
:1005200006D5072212021B6813433E4A13603D4B57
:100530001A68F0239A43A36813433A4A1360394B6D
:10054000C00728D1364A116801200140A94205D9C7
:100550001168814311601168C9072CD120784007C8
:1005600006D50720000219688143E0680843186037
:1005700019680C220A402D48082A17D18A02120F46
:100580002B4B9C5C274B9A6AC90333D42A4838E02A
:10059000012001B0F0BD6268181F0068022A07D070
:1005A000012A0AD18003084605D509E0044629E05E
:1005B0008001084604D401B0F0BD80070846FAD592
:1005C000186803210091884310431860FFF720FF4B
:1005D0000646154F134B18680C21014060688000D7
:1005E0008142AFD0FFF714FF801BB842F2D90098C8
:1005F00001B0F0BD0F210A400E49895C00F0AEFA4F
:10060000084B444318680006000F0C49085CC440BE
:100610000B4804600320FFF717FF002001B0F0BD76
:1006200000200240041002408813000000127A00EB
:10063000620D0008720D000800093D00520D00080F
:1006400008000020F0B587B004460120002C00D13E
:10065000ECE104902078C007F54E05940CD0716849
:100660000C200140042900D08AE03068800303D5C3
:100670006068002800D1D8E0207880071CD5706819
:100680000007800F09D070680C210140082900D0B4
:100690008EE07068C00300D58AE030688007059C52
:1006A00003D5E068012800D0BFE03068F821884316
:1006B0002169C90001433160059C2078000724D4DA
:1006C0002078400736D42078C00600D4CCE0706B88
:1006D000059949694A1D00D1BBE0012900D00AE112
:1006E000042108437063706B012101437163FFF7BC
:1006F0008FFE0546706B800700D5ADE0FFF788FEE2
:10070000411B03200229F5D990E1706AE1690029B3
:1007100079D0012108437062FFF77AFE0546706ABE
:100720008007CDD4FFF774FE401B0228F7D90320C1
:1007300007B0F0BD012003900107F0690840029066
:1007400006D1F0690843F061F06908400690069808
:100750000191B84F3868C00541D403980402386845
:1007600020433860FFF754FE05463868204236D1F2
:10077000FFF74EFE401B6428F7D9032007B0F0BDF9
:1007800071680140082903D17068C00300D56CE787
:100790006268306801214F04002A00D1F9E0052A7F
:1007A00000D1EFE0012A00D009E1090408430CE17F
:1007B0003068059CE16800293AD001210843306087
:1007C000FFF726FE05463068800700D56DE7FFF786
:1007D0001FFE401B0228F6D9032007B0F0BD059884
:1007E0008168306A944F002900D1ADE0052900D11D
:1007F00095E0012900D196E0039988433062306A80
:100800000421884391E0012188437062FFF700FED4
:100810000546706A800700D452E7FFF7F9FD401BD8
:100820000228F6D9032007B0F0BD049807B0F0BD48
:10083000012188433060FFF7EBFD054630688007F3
:1008400000D439E7FFF7E4FD411B03200229F5D965
:10085000ECE0042188437063706BF82188430599AC
:100860008969C900014371630598046A002C1ED090
:1008700070680C21014008291CD1012C049800D17A
:10088000D4E00120030471680B40F26A059D6C6A94
:10089000A34200D0CAE00F231A40EC6AA24200D063
:1008A000C4E09A041140AA6A914200D0BEE0002040
:1008B00007B0F0BD01200206316804929143316017
:1008C0004706FFF7A5FD0546022C0AD130683842DD
:1008D00000D18AE0FFF79CFD411B03200229F5D9D6
:1008E000A4E030683842E2D0FFF792FD411B0320BC
:1008F0000229F6D99AE0042108437063706B012144
:1009000088437063FFF784FD0546706B8007ABD5A5
:10091000FFF77EFD411B03200229F6D986E0042162
:1009200008433062306A039908433062FFF770FD74
:100930000546306A80071BD4FFF76AFD401BB842AA
:10094000F7D9032007B0F0BD039988433062306ABD
:10095000042188433062FFF75BFD0546306A80075B
:1009600006D5FFF755FD411B0320B942F6D95DE0DE
:1009700002980028059C00D0A5E6F06901998843FB
:10098000F061A0E68A04104330600904306808432F
:100990001BE00A0490433060880431688143316071
:1009A000FFF736FD0546059C3068384200D163E606
:1009B000FFF72EFD411B03206429F5D936E00A0418
:1009C000904330608904306888433060FFF720FD31
:1009D00005463068384200D04EE6FFF719FD401B4F
:1009E0006428F6D9032007B0F0BDF06A0F218843D0
:1009F000059AD16A0143F1623D2000047168814388
:100A0000906A0843516A0143716030680499084351
:100A10003060FFF7FDFC04463068384200D046E7FE
:100A2000FFF7F6FC011B03200229F5D907B0F0BD42
:100A3000001002400070004088130000401E010EAC
:100A400001D0012070470749074A506007480368F2
:100A50000B4003218907591801600020906007218D
:100A600011607047FFFFFF0010E000E020ED00E0A4
:100A7000FEE7FEE77047704780B5FFF7CDFC80BD0D
:100A80007047000090B0FFF7D1FC00240894079451
:100A90000B940A940994069405940F940D940226DD
:100AA0000C9604961020089001270797FD040E95D8
:100AB00004A8FFF7C7FD002803D0EFF3108072B63B
:100AC000FEE780200290019607200090039468467C
:100AD0002146FFF70BFD002803D0EFF3108072B61C
:100AE000FEE708940794069405940494B805194900
:100AF0000A6802430A600A68024000920098086887
:100B00002843086008682840009000983D02124E73
:100B1000304629462246FFF773FC07940694059752
:100B20007D2084002046F438049004A93046FFF765
:100B300087FB012230462946FFF762FC2046FFF77B
:100B40006FFB002230462946FFF75AFC2046FFF78C
:100B500067FBEEE7141002400008004843088B4290
:100B60001AD3002203098B4279D3030A8B425ED346
:100B7000030B8B4242D3030C8B4227D30902FF2283
:100B800012BA030C8B4202D31212090203D0030BD8
:100B90008B4233D31AE0D3E0411A8041401C7047A6
:100BA00003460B4371D443088B42F5D3002203095B
:100BB0008B4254D3030A8B4239D3030B8B421DD390
:100BC000030C8B4202D394466EE0090AC30B8B429E
:100BD00001D3CB03C01A5241830B8B4201D38B0349
:100BE000C01A5241430B8B4201D34B03C01A5241EE
:100BF000030B8B4201D30B03C01A5241C30A8B4231
:100C000001D3CB02C01A5241830A8B4201D38B021B
:100C1000C01A5241430A8B4201D34B02C01A5241BF
:100C2000030A8B4201D30B02C01A5241CDD2C30931
:100C30008B4201D3CB01C01A524183098B4201D3AD
:100C40008B01C01A524143098B4201D34B01C01A98
:100C5000524103098B4201D30B01C01A5241C30810
:100C60008B4201D3CB00C01A524183088B4201D37F
:100C70008B00C01A524143088B4201D34B00C01A6B
:100C80005241411A524110007047CA0F00D04942E8
:100C9000031000D34042534000229C4603098B427C
:100CA0002DD3030A8B4212D38901FC2212BA030A04
:100CB0008B420CD3890192118B4208D38901921186
:100CC0008B4204D3890137D0921100E08909C3090E
:100CD0008B4201D3CB01C01A524183098B4201D30D
:100CE0008B01C01A524143098B4201D34B01C01AF8
:100CF000524103098B4201D30B01C01A5241C30870
:100D00008B4201D3CB00C01A524183088B4201D3DE
:100D10008B00C01A5241D9D243088B4201D34B00F9
:100D2000C01A5241411A00D2014652411046634650
:100D30005B1000D34042704763465B1000D34042D3
:100D400001B50021004201D0C9430846C046C04653
:100D500002BD0000000000000000010203040607BD
:100D6000080902030405060708090A0B0C0D0E0FFB
:100D700010100102030405060708090A0B0C0D0EEA
:100D80000F100000A80D0008000000201000000057
:100D900018010008B80D00081000002068060000C7
:100DA00038010008000000000100000004000000FD
:080DB00000127A0000000000AF
:04000005080000BD32
:00000001FF
