:020000040800F2
:10000000400800207D010008D9180008D718000812
:1000100000000000000000000000000000000000E0
:10002000000000000000000000000000DD180008D3
:100030000000000000000000DB180008DF180008C6
:100040008F0100088F0100088F0100088F01000850
:100050008F0100088F0100088F0100088F01000840
:100060008F0100088F010008E90400088F010008D3
:100070008F0100088F0100088F0100088F01000820
:100080008F0100088F010008000000008F010008A8
:100090008F0100088F0100088F0100088F01000800
:1000A0008F0100088F0100088F010008A5200008BB
:1000B0008F010008000000008F01000800F002F826
:1000C00000F04CF812A030C8083824182D18AC42A3
:1000D00001D100F043F80FCCA246AB460CA730CFBD
:1000E0002D1B083F3F197C427F1E54442D090426D6
:1000F000F441641EAC4201D300F030F801263342D3
:1001000000D0FB1A3343984754465D46DFE70000B2
:10011000F027000010280000103A02D378C878C1F8
:10012000FAD8520701D330C830C101D504680C6039
:1001300070470000704700000023002400250026BF
:10014000103A01D378C1FBD8520700D330C100D593
:100150000B6070471FB51FBD10B510BD00F0D4F87F
:100160001146FFF7F7FF02F023F800F0ECF803B4B4
:10017000FFF7F2FF03BC00F041F900000748804799
:1001800007480047FEE7FEE7FEE7FEE7FEE7FEE77B
:1001900004480549054A064B70470000E718000867
:1001A000BD0000084002002040080020400400205C
:1001B0004004002001E004C0091F0429FBD28B0782
:1001C00001D50280801CC90700D002707047002949
:1001D0000BD0C30702D00270401C491E022904D371
:1001E000830702D50280801C891EE3E70022EEE728
:1001F0000022DFE770477047704710B501469E2424
:100200000002CA15A307002A02D01843002A04DB03
:10021000A21A002A0CDDD04010BD1206120E01D128
:1002200040004008A21A03D4D04040420028F3DD29
:10023000FF2248001206904201D9002010BDC817C5
:10024000C043584010BD1F22030C02D10F220004EE
:100250001CD0030E01D10002083A030F01D10001A6
:10026000121F830F01D18000921E002801DB400085
:10027000521ED2055118021251181922904004D36F
:10028000491C002801D14908490008467047C10FA0
:10029000C90700D04042012292071143D3E7012150
:1002A0008907D0E710B5FF231B0644009C421DD8E8
:1002B0004C009C421AD80346124A0B4307D4401AFA
:1002C00002D3EFF3008010BDEFF3008010BD081AD9
:1002D00003D3EFF30080904305E0EFF300800121AA
:1002E0009043C907084380F3008810BD0D231B0409
:1002F0001A4204D01146002000F02DF810BD00F085
:1003000041F810BD00000090754600F043F8AE467D
:10031000050069465346C008C000854618B020B5A0
:10032000FFF736FF60BCB64600260027C0C5C0C533
:10033000C0C5C0C5C0C5C0C5C0C5C0C5403D4908D1
:1003400049008D46704710B50446C046C046204659
:10035000FFF70DFF10BDC80212D54803400F00285B
:1003600004D0C803C043012188407047EFF30080E8
:100370000001000903210907084380F30088704742
:100380000020704710B5024800F008F810BD0000CA
:100390000000C07F004870473000002010B50C46B8
:1003A0001107090F092904D00A290AD008290CD1FC
:1003B00004E011460820FFF7CEFF06E0510606D5FF
:1003C00001E0510601D50120C007214610BDD1062C
:1003D00007D501010909CC084907000E00060443AE
:1003E00009E0410F20024907000A0143200E0006E0
:1003F0001D22D14101430846E7E7000001491820CA
:10040000ABBEFEE7260002007047000010B5314C7D
:10041000607901282CD0042827D0022827D1637ABC
:10042000E1794B40A0794340227A5340DBB2022B62
:1004300038D1E3780B43134341D10E283FD12649ED
:100440000E204870022008701420C87025480078DB
:100450008870182242400A7120480522204B01F082
:100460002FF90120E070607010BD01F021FE10BD79
:10047000E179A0794140C9B2012910D100280ED1FB
:1004800015491420C8708870012048700870A07049
:100490001248042201F0DAF90020E07010BD0E4984
:1004A000012001E00C490220C870FF228A704A70C6
:1004B00008700A4804220A4B01F002F910BD0E2808
:1004C000D5D005492020C870FF208870DD204870F5
:1004D0000220EDE790000020B8010020300100204C
:1004E000FFFF00000000002080B5034800F04CF83A
:1004F000024800F049F880BDEC000020A800002070
:10050000EFF3108072B6FEE710B5014620314A784D
:10051000022A12D1026813680E24A34313601368E1
:100520000124A3431360C26B006C234683405360D5
:100530004C70002000220A7010BD0422826301204A
:1005400000220A7010BDB0B5014620314A78022A57
:1005500016D1026813680E24A343136013680125A3
:10056000AB431360C26B036C2C469C405460002468
:100570000C704D70416B002900D088472046B0BDFB
:10058000042181630120B0BDF0B585B0C16B026C60
:1005900004273C460292944003910E682146314064
:1005A0004B424B41049005682868014639404A4255
:1005B0004A411A4330D02B460122022701463940D6
:1005C0004C424C41029DAF403742019211463246A7
:1005D00000D02146049E3446203400292CD0082126
:1005E0000840474247412846EA401107019D00D58F
:1005F0003D46002D1ED119680E229143196001213C
:100600000A468240039B5A60B163002222706170E7
:10061000316B00290CD10DE02968890602D42968C4
:10062000B943296003994C60049EF16A002901D006
:100630003046884705B0F0BD1968890605D41968A9
:100640000A229143196001216170002121700399F0
:100650004F60B16A0029EBD1ECE70000F0B585B03E
:10066000002830D00546203502216970C4C80468CE
:100670004168019181680291C16803910169049107
:100680001168134B0B4033433B43234301990B4306
:1006900002990B4303990B4304990B431360002405
:1006A000C4620C4901632C700B490C385218142198
:1006B0000646104601F0A8FE8000306401206870F4
:1006C000204605B0F0BD0124204605B0F0BDC0466F
:1006D0000FC0FFFF00000240F8FFFDBFB0B50446A9
:1006E00000F0ECF80546601C02D09148007804192F
:1006F00000F0E4F8401BA042FAD3B0BDF0B58CB0D6
:1007000005900C68002C00D1CBE06748059A824226
:1007100001D0052000E00320009020320192002348
:100720001D460A9309910CE032433A605B1C0C6849
:100730002046D8400A9A121D0A92AD1C002800D10A
:10074000AFE0012706979F403C400794EED002930C
:1007500003242246AA40D0432B464D682E4626400D
:10076000721E012A0495039313D808900598826895
:10077000089C2240CC689C4014438460EA06D20F57
:10078000029B9A404468BC430746089814437C6027
:1007900007E0032E059F029B03D126460499039D83
:1007A0001FE0FA68024009998C68039DAC4014432D
:1007B000FC60022E049914D11C2108900A98014073
:1007C0000F228A40DC08A400019806599643099F2D
:1007D0003A698A403243025108987968059F032696
:1007E0000E40AE403A68024032433A608903890FB6
:1007F00009999BD059480168069E31430160016800
:1008000031400B910322194691430B9A28480491D9
:10081000085808900922D2060598904209D0254A26
:10082000904207D0244A9042009E204F03D10226D6
:1008300001E000261D4F0C220A9802400F2494402C
:100840000899A1431A48049C201896400E4306605C
:10085000BC6809994868C20210D5079E3443BC6041
:10086000FC68820210D4B443FC607C68820310D41C
:10087000B4437C603A68C00311D555E7079EB44382
:10088000BC60FC688202EED53443FC607C68820365
:10089000EED534437C603A68C00300D544E7B243E8
:1008A00043E70CB0F0BDC046000C00480004014016
:1008B000080001400004004800080048054800689E
:1008C0007047C0461A48007802490A681018086044
:1008D0007047C0463802002080B5CA48016810221F
:1008E0000A430260032000F005F800F023F800201E
:1008F00080BDC04670B504467D20C0000C4E3178E6
:1009000001F082FD0146C748006801F07DFD00F05E
:10091000B3FB0125032C08D8002806D10025E843A5
:1009200021462A4600F028F87460284670BDC0466B
:100930002000002082B009480168012211430160B3
:100940000168114001910199110742680A43426010
:10095000406808400090009802B0704718100240AC
:10096000002805D41F210840012181400148016071
:100970007047C04600E100E0002805D4032203468A
:1009800093430A4A9A1803E00C220240064BD218FD
:100990008007C00E8901C9B28140FF2383401068DF
:1009A000984308431060704714ED00E000E400E055
:1009B000F0B587B004468078C007424F4FD0012081
:1009C000059001073A1F10680840049006D110688E
:1009D0000843106010680840069006980292039140
:1009E000394F3868C00512D405980602386830437C
:1009F0003860FFF763FF05463868304207D1FFF7DC
:100A00005DFF401B6428F7D9032007B0F0BD032029
:100A1000019000022B4F3968014012D062680240F9
:100A200091420ED00598000439683A6802433A6052
:100A30003A6882433A600846244A10403860C80742
:100A400030D1386821490840616801433960049811
:100A5000002804D1029A1068039988431060216825
:100A6000C80706D188060CD40020490512D407B067
:100A7000F0BD386903229043A26802433A618806B8
:100A8000F2D5386910229043E26802433A610020AF
:100A90004905ECD539694022914322690A433A61FC
:100AA00007B0F0BDFFF70AFF0546574E38688007CC
:100AB000C7D4FFF703FF401BB042F7D9019807B036
:100AC000F0BDC0462010024000700040FFFCFFFF58
:100AD000F0B581B000284DD00D460446494B18684A
:100AE00001210840A84208D21A68012082432A4303
:100AF0001A601A680240AA424FD1206882075B4BF5
:100B000010D5420706D5072212021B681343574A25
:100B10001360564B1A68F0239A43A3681343534A51
:100B20001360524BC00728D1364A1168012001409A
:100B3000A94205D91168814311601168C9072CD1F8
:100B40002078400706D50720000219688143E06835
:100B50000843186019680C220A404548082A17D132
:100B60008A02120F434B9C5C404B9A6AC90333D4F0
:100B7000424838E0012001B0F0BD6268181F0068EB
:100B8000022A07D0012A0AD18003084605D509E0C8
:100B9000044629E08001084604D401B0F0BD800776
:100BA0000846FAD51868032100918843104318605D
:100BB000FFF784FE0646144F2C4B18680C210140A9
:100BC000606880008142AFD0FFF778FE801BB8429A
:100BD000F2D9009801B0F0BD0F210A402649895C86
:100BE00001F012FC214B444318680006000F07492E
:100BF000085CC4400B4804600320FFF77BFE002024
:100C000001B0F0BD0020024088130000C828000891
:100C100004480068154909684905490F024A515CB2
:100C2000C840704728000020D828000810B50F4998
:100C30000B680C2018400E4A082809D19802000FB2
:100C40000C4C205C896ADB0304D40C49484310BD7A
:100C5000104610BD0F231940074B595C044610463F
:100C600001F0D2FB01462046484310BD041002406B
:100C700000127A00E0280008F028000800093D0072
:100C8000F0B587B004460120002C00D1ECE10490BF
:100C90002078C007F54E05940CD071680C200140F7
:100CA000042900D08AE03068800303D560680028FA
:100CB00000D1D8E0207880071CD570680007800F2D
:100CC00009D070680C210140082900D08EE07068BE
:100CD000C00300D58AE030688007059C03D5E06832
:100CE000012800D0BFE03068F82188432169C9009D
:100CF00001433160059C2078000724D42078400708
:100D000036D42078C00600D4CCE0706B05994969D0
:100D10004A1D00D1BBE0012900D00AE104210843AB
:100D20007063706B012101437163FFF7C7FD0546D6
:100D3000706B800700D5ADE0FFF7C0FD411B0320BD
:100D40000229F5D990E1706AE169002979D0012181
:100D500008437062FFF7B2FD0546706A8007CDD484
:100D6000FFF7ACFD401B0228F7D9032007B0F0BD08
:100D7000012003900107F0690840029006D1F06954
:100D80000843F061F0690840069006980191B84F59
:100D90003868C00541D4039804023868204338609D
:100DA000FFF78CFD05463868204236D1FFF786FDF7
:100DB000401B6428F7D9032007B0F0BD71680140DB
:100DC000082903D17068C00300D56CE762683068F9
:100DD00001214F04002A00D1F9E0052A00D1EFE0FB
:100DE000012A00D009E1090408430CE13068059CA0
:100DF000E16800293AD0012108433060FFF75EFD29
:100E000005463068800700D56DE7FFF757FD401BAA
:100E10000228F6D9032007B0F0BD05988168306A32
:100E2000944F002900D1ADE0052900D195E00129BA
:100E300000D196E0039988433062306A04218843E8
:100E400091E0012188437062FFF738FD0546706A22
:100E5000800700D452E7FFF731FD401B0228F6D986
:100E6000032007B0F0BD049807B0F0BD012188430E
:100E70003060FFF723FD05463068800700D439E76E
:100E8000FFF71CFD411B03200229F5D9ECE00421EA
:100E900088437063706BF821884305998969C9009C
:100EA000014371630598046A002C1ED070680C2100
:100EB000014008291CD1012C049800D1D4E0012064
:100EC000030471680B40F26A059D6C6AA34200D06E
:100ED000CAE00F231A40EC6AA24200D0C4E09A0490
:100EE0001140AA6A914200D0BEE0002007B0F0BDD8
:100EF0000120020631680492914331604706FFF7F2
:100F0000DDFC0546022C0AD13068384200D18AE067
:100F1000FFF7D4FC411B03200229F5D9A4E0306877
:100F20003842E2D0FFF7CAFC411B03200229F6D960
:100F30009AE0042108437063706B01218843706359
:100F4000FFF7BCFC0546706B8007ABD5FFF7B6FC1E
:100F5000411B03200229F6D986E0042108433062B0
:100F6000306A039908433062FFF7A8FC0546306AEF
:100F700080071BD4FFF7A2FC401BB842F7D903201F
:100F800007B0F0BD039988433062306A042188437A
:100F90003062FFF793FC0546306A800706D5FFF7FD
:100FA0008DFC411B0320B942F6D95DE00298002870
:100FB000059C00D0A5E6F06901998843F061A0E6A0
:100FC0008A04104330600904306808431BE00A04B7
:100FD000904330608804316881433160FFF76EFCD4
:100FE0000546059C3068384200D163E6FFF766FC91
:100FF000411B03206429F5D936E00A049043306090
:101000008904306888433060FFF758FC0546306833
:10101000384200D04EE6FFF751FC401B6428F6D959
:10102000032007B0F0BDF06A0F218843059AD16A0A
:101030000143F1623D20000471688143906A0843D6
:10104000516A014371603068049908433060FFF7CA
:1010500035FC04463068384200D046E7FFF72EFCE6
:10106000011B03200229F5D907B0F0BD0010024092
:101070000070004088130000401E010E01D00120C6
:1010800070470749074A5060074803680B4003212F
:10109000890759180160002090600721116070478E
:1010A000FFFFFF0010E000E020ED00E070B5034618
:1010B0008020185820280FD1012000290BD0002AA9
:1010C00009D0012004039D68A54207D1CC0705D0B3
:1010D0001C69002C02D170BD022070BD186600256D
:1010E0005D661C460646184600F042FE3046216EFC
:1010F0000129F0D1206810210162EFF31080012254
:1011000082F31088226813680B43136080F3108801
:10111000284670BD014801210171704790000020F0
:1011200070477047F0B587B003460168CD690C6819
:101130002020049402900440624262410120069003
:10114000C7023E462F362E40203E701E8641164373
:101150008E6857D003938033019738460F3005953A
:101160000542049D07D0E7482840012732463A400F
:10117000101800D09BE010242846204047424741E9
:101180000398006E0128069A44D00598C006069F71
:1011900045D4002F46D00124A0050640724272417A
:1011A0000598C002069E039800D51646002E00D171
:1011B0008CE080222A4051425141059B1A06069A32
:1011C00000D50A46002A00D190E140210D406A4234
:1011D0006A415B0600D50692069A002A00D009E112
:1011E000EFF3108584F31088026813688B43136053
:1011F00085F310880021C1660299C16700F06AFB7F
:1012000007B0F0BD996E002900D1F3E01846884779
:1012100007B0F0BD3A460598C006069FB9D51746F7
:10122000002FB8D1039F3D4658350C6288684006B0
:1012300052D4698828886A88002A00D1DAE0884276
:1012400000D1D7E00693EFF31083012282F31088D8
:1012500009256D013E68059139463768AF4337600F
:1012600083F31088EFF3108382F310880D68AE6863
:101270009643AE6083F31088029B069D2B6000238B
:101280008B660B66EFF3108382F310880A6815688B
:10129000A543156083F3108802224A66059A801AD6
:1012A00082B208461146FFF735FF07B0F0BD38029D
:1012B0002840464246410598C00706985CD1002860
:1012C0005DD00097059DA80761D469E022050A62F8
:1012D000FFF726FF07B0F0BD786F016849688AB252
:1012E000002A00D186E01E462B889A4200D381E076
:1012F00069808069202834D0EFF31081012080F3C9
:101300001088824A203206963B681E6816401E608E
:1013100081F31088EFF3108180F310883A689368A6
:101320008343936081F31088EFF3108180F310887A
:101330003A6893684026B343936081F3108802991A
:10134000069A116000213966EFF3108180F310884E
:1013500038680268A243026081F31088786FFFF753
:10136000D3F80220786628886988401A81B2384606
:10137000FFF7D0FE07B0F0BD30460028A1D10F62C4
:101380005868384358600097059DA80708D5002A7B
:1013900006D0022008625868042606435E60059D58
:1013A0006807019F07D5002A05D004200862586805
:1013B000022606435E6022435642564105980007C6
:1013C000069A009D00D53246002A04D10820086202
:1013D0005A6802435A60A806049D05406A426A4161
:1013E000059E3E42069D07D1002D08D05868002872
:1013F000039D0DD107B0F0BD1546002DF6D10F624B
:101400005868029A1043586058680028039DF1D02C
:101410000298064062426241002E00D00692069871
:10142000002809D1AA6E002A06D02C4628461D465F
:1014300090472B4625462168586828220240886834
:101440004021084080181E4606D12846FFF769FE55
:101450000020706007B0F0BDEFF31080009F87F3AD
:101460001088092252012B681C6894431C6080F389
:101470001088EFF3108087F310882A689368BB43C5
:10148000936080F31088286E01280BD1EFF3108051
:10149000009A82F310882A6813681024A34313600B
:1014A00080F310880298306000202866A8662868BB
:1014B0008068400621D5EFF31080009A82F31088EF
:1014C0002A6893688B43936080F31088696F0029C2
:1014D00013D00D4848630846FFF735F8002800D1BF
:1014E00088E7686F416B884707B0F0BDC16E00297F
:1014F00000D17FE7884707B0F0BD2846FFF711FE0F
:1015000007B0F0BD200100048D1A0008DFFEFFFFC8
:10151000B0B500281DD00446C06F002805D1782042
:1015200000212154204600F02BF82420E067206899
:1015300001680125A9430160606A002802D02046A5
:1015400000F0D2F9204600F07DFB002803D02846A9
:10155000B0BD0120B0BD0920C00221684A688243A5
:101560004A6088682A229043886008680122024302
:101570000A60204600F022FA05462846B0BD000069
:10158000F0B587B0044600260696059604960396A5
:10159000029600682B49884201D007B0F0BD2A4866
:1015A0004168012206929303194341604168194042
:1015B00001910199510402680A43026000680840E1
:1015C00001900496022003900320059040020290AF
:1015D00001980920C00602A9FFF790F81B4D2020B2
:1015E00080271B49143142C52E606F60AE60EE60EB
:1015F00028616E61083D2846FFF730F8002801D0C9
:10160000FEF77EFF6C626567124D1020104929605D
:10161000291DC1C12E616E61AE61EE612846FFF7E2
:101620001DF8002801D0FEF76BFF6C6225671B24B4
:10163000002120460A46FFF79FF92046FFF790F960
:1016400007B0F0BD0038014014100240A80000208F
:101650001C000240EC000020F0B581B08023C3588C
:10166000202B12D1012400290CD0002A0AD00123FA
:101670001C038568A5420CD1CC070AD00469002C54
:1016800007D11C46204601B0F0BD0224204601B01F
:10169000F0BD0024046605686D682D020AD5EFF3DD
:1016A000108583F310889B06066837681F433760F0
:1016B00085F3108800F05CFB204601B0F0BD704758
:1016C000F0B585B00446C06F202810D10120002954
:1016D0000BD0002A09D001200503A668AE4209D12B
:1016E000CE0707D02669002E04D105B0F0BD022038
:1016F00005B0F0BD01930291274650372046843053
:101700000021039101602120E0671646FFF7D6F81B
:1017100004907E803E80A068A84202D12069002803
:101720005ED0029D019E039A2168788800285ED0D1
:10173000701C454B2ED0002E49D00392C86900067C
:1017400008D4FFF7BBF80499401AB04266D8216864
:101750000868F3E7002D03D0287808856D1C07E0A2
:10176000039A1088384B18400885921C0392002574
:101770007888401E788078880028DFD137E010888C
:1017800018400885921C00257888401E788078884B
:1017900000282CD0C869000608D4C869000605D402
:1017A000C869000602D4C8690006F3D5002DE6D04A
:1017B000287808856D1CE7E7108818400885921C7A
:1017C00000257888401E7880788800280FD0C86966
:1017D000000621D5002DEFD0287808856D1CF0E794
:1017E0000025029A019E216878880028A0D1CA6944
:1017F0000020520613D4002E0ED0721C13D1CA69D9
:1018000052060CD4CA69520609D4CA69520606D4D3
:10181000CA695206F3D502E0FFF750F803202021F1
:10182000E16705B0F0BD0546FFF748F80499401A96
:10183000B042F3D820680168C0694006F4D5284654
:101840002021E16705B0F0BDFF010000F0B581B0D7
:10185000C36F202B12D1012300290CD0002A0AD0FB
:10186000856801242603B5420CD1CB070AD0036951
:10187000002B07D12346184601B0F0BD02231846BD
:1018800001B0F0BD009407465037044684347A8096
:10189000002323603A80C1642121C167B54202D18F
:1018A0000169002910D00A49009AC166EFF310813E
:1018B00082F310880068026880241443046081F376
:1018C0001088184601B0F0BD0049EDE7311E000850
:1018D000911E00087047FEE7FEE77047704780B52D
:1018E000FEF7F0FF80BD7047B0B5416A0A070CD41F
:1018F000CA0714D18A071CD44A0724D4CA062CD498
:101900008A0634D44A063CD44CE00122D203036850
:101910005C689443426B22435A60CA07EAD00122B2
:10192000520403685C689443826A22435A608A07BF
:10193000E2D50122120403685C689443C26A224320
:101940005A604A07DAD50122920403685C6894431E
:10195000026B22435A60CA06D2D5012212030368E1
:101960009C689443826B22439A608A06CAD50122FE
:10197000520303689C689443C26B22439A604A06F0
:1019800010D501221305026854689C43056C2C4352
:1019900054609D4206D103235B0554689C43436C0D
:1019A00023435360090607D50121C904026853681F
:1019B0008B43806C18435060B0BD0000F0B583B01D
:1019C0000446064678360025F560FEF777FF0346A5
:1019D00020680168090721D502952B480090012550
:1019E0006905002220461F4600F07EFA002812D02A
:1019F000EFF3108085F3108821680A6880239A43EA
:101A00000A6080F31088032020227C21029D62500E
:101A1000357003B0F0BD20683B46029D006840076A
:101A200026D5194800900127B9050022204600F06C
:101A30005BFA00281CD0EFF3108087F3108809218F
:101A40004901226813688B43136080F31088EFF319
:101A5000108087F3108821688A68BA438A6080F30F
:101A600010880320202280216250357003B0F0BD21
:101A70002020E067B060256664212A46284662502F
:101A8000357003B0F0BDC046FFFFFF0180B5406A6E
:101A90000146523100220A8152214252FFF741FB96
:101AA00080BDF0B581B0802141580268222910D153
:101AB000014658318B88928C1A40436D1A804A88AF
:101AC000521E4A809A1C42654A88002A07D001B0FB
:101AD000F0BD906908210143916101B0F0BD03465A
:101AE0008033EFF31084012282F3108809256D0101
:101AF00006683768AF43376084F31088EFF31084CB
:101B000082F310880568AE689643AE6084F310884F
:101B100020241C60002343668366046864682402F2
:101B20000AD5EFF3108482F31088950606683768AB
:101B3000AF43376084F31088046E012C15D103661F
:101B4000EFF3108382F31088046825681022954310
:101B5000256083F310880368DC69E40600D51A6207
:101B60000988FFF7D7FA01B0F0BDFFF7A8FD01B073
:101B7000F0BDF0B581B0802141580268222911D111
:101B8000014658318B88928C1A40436D1A704A88EE
:101B9000521E4A80426D521C42654A88002A07D074
:101BA00001B0F0BD906908210143916101B0F0BD21
:101BB00003468033EFF31084012282F31088092555
:101BC0006D0106683768AF43376084F31088EFF320
:101BD000108482F310880568AE689643AE6084F383
:101BE000108820241C6000234366836604686468B0
:101BF00024020AD5EFF3108482F310889506066854
:101C00003768AF43376084F31088046E012C15D118
:101C10000366EFF3108382F31088046825681022AE
:101C20009543256083F310880368DC69E40600D5DA
:101C30001A620988FFF76EFA01B0F0BDFFF73FFDA9
:101C400001B0F0BDB0B50446006801683E4A0A40E4
:101C5000A16823690B4365691D431543E1690D4381
:101C600005600322120343689343E2681A4342600B
:101C7000A269236A13430B221202856895431D4310
:101C80008560324A904209D0314A904208D13148A9
:101C900000688007000F30A2135802E0002300E024
:101CA00010230125EA03304891420FD1082B46D872
:101CB0007B441B795B009F44044224421942424208
:101CC0002300FEF7A5FF00281BD137E0082B36D8EC
:101CD0007B441B795B009F44043225320E32323242
:101CE0002400FEF795FF00281CD127E0FEF79EFF99
:101CF000002806D122E0FEF799FF002812D11DE04E
:101D00001046400061684A08101800F07DFB02464A
:101D1000103A16498A4212D201400007400F084388
:101D20000AE0104661684A08101800F06DFB014691
:101D300010390E4A914202D22168C8600025002065
:101D4000A066E0662846B0BDF369FFFF004400408E
:101D50000038014030100240000000000400000084
:101D6000080000000200000000127A00F0FF0000EE
:101D7000B0B55823C25241650021816603465833ED
:101D80005A80846802468032002C09D001252D0338
:101D9000AC420ED10469002C08D13C4C9C8009E077
:101DA0000469002C02D07F249C8003E0FF249C80E7
:101DB00000E09980516022211160EFF3108201212F
:101DC00081F3108803689C680C439C6082F3108840
:101DD00002690B0384689C4204D1002A14D0124A81
:101DE000826603E0104B8366002A0FD0EFF3108267
:101DF00081F3108809214901006803680B430360DF
:101E000082F310880020B0BD084A8266EFF310828A
:101E100081F310880068016820230B43036082F37C
:101E200010880020B0BDC046731B0008A31A00082C
:101E3000B0B5C16F212910D15221415A00290DD0CE
:101E400001465231C26C1388104C1C4003681C853B
:101E5000921CC2640888401E0880B0BDEFF3108158
:101E6000012282F3108803681C688025AC431C6043
:101E700081F31088EFF3108182F310880068026804
:101E800040231343036081F31088B0BDFF010000BD
:101E9000B0B5C16F21290ED15221415A00290BD072
:101EA000014652310268C36C1C7814855A1CC26406
:101EB0000888401E0880B0BDEFF31081012282F334
:101EC000108803681C688025AC431C6081F310886F
:101ED000EFF3108182F310880068026840231343F7
:101EE000036081F31088B0BDF0B585B01F4615467C
:101EF0000E460368D9693140891B4A424A41002194
:101F0000AA4222D10A9C002C22D00391611C24D128
:101F1000D9693140891B4A424A41AA4231D1D96923
:101F20003140891B4A424A41AA422AD1D9693140EB
:101F3000891B4A424A41AA4223D1D9693140891BAF
:101F40004A424A41AA42E3D01BE0084605B0F0BD30
:101F5000FEF7B4FC032005B0F0BD402E049001D084
:101F6000802E14D1FEF7AAFCC01BA0420CD8049806
:101F700000680168C0693040801B41424141A9426C
:101F8000F0D0039805B0F0BD032005B0F0BD783067
:101F9000019001200090C002029006E0C869304024
:101FA000801B41424141A942EBD1FEF787FCC11B96
:101FB0000320A1423ED8049909680A685207EDD56A
:101FC000CA69120738D4CA69029B1A42E6D0029A3B
:101FD0000A62EFF31082012181F3108809235B016B
:101FE000049C246825689D43256082F31088EFF3E4
:101FF000108281F31088049B1B689C688C439C6052
:10200000049B82F310881A6E012A0BD1EFF3108221
:1020100081F3108819680B681024A3430B60049B9C
:1020200082F310882021019CA16000221A669A6622
:102030002270E16005B0F0BD08250D62EFF310815C
:10204000009880F3108809225201049B1B681C68C9
:1020500094431C6081F31088EFF3108180F31088A3
:10206000049A1268936883439360049B81F31088F9
:10207000196E01290CD1EFF31081012282F310882F
:102080001A6813681024A3431360049B81F310881B
:102090002021019A91600021196699661170D5601E
:1020A00005B0F0BD80B5D148FFF73CF880BDC04613
:1020B000F0B581B0CF4DA97961290DD1687800289C
:1020C00049D1CE4DAC697F20C105204600F0B8FA59
:1020D000002840D1354914E06878642916D10028D9
:1020E00014D1C64D03CDC9434018083DFEF7CFF8C3
:1020F0000146AC69204600F08DFA00282BD17F20E4
:10210000C105204600F0B4FAA86124E072290ED17E
:1021100000280CD1B948BB4900222A708322D2057D
:102120008161C261412109068160C16013E02129FA
:1021300005D070290FD10121484068700BE0AE49ED
:1021400000248C70012048700870A8480322AC4B12
:10215000FFF7B6FAEC70A84F032000903870A74E36
:10216000B068FEF74AF804467870F068FEF745F864
:102170000546B870B069FEF740F80646F8709F480B
:10218000C069FEF73AF83871B9797A794A406A40FD
:10219000624072404240009842407A719548411D29
:1021A00092480122FFF758FA01B0F0BD000080BF4D
:1021B0009CB0FEF791FB10AC201D2C21FEF718F807
:1021C00000251895102014900126139602201090D7
:1021D0000B950A95099508952046FEF751FD0028B4
:1021E00003D0EFF3108072B6FEE70F950E950D95B4
:1021F00007200C900CA82946FEF76AFC002803D0A3
:10220000EFF3108072B6FEE70995079607A8FEF770
:10221000CFFB002803D0EFF3108072B6FEE77348BF
:102220000C21734A05624562E1235B022CC0056004
:1022300045608160C56005610C38FFF769F90028C9
:1022400003D0EFF3108072B6FEE76A4C611D674859
:1022500010220191FEF72AFF684F039502960FE0C6
:102260008320C0056749654FB961F86141200006C8
:10227000B860F860039D284620703220FEF72EFAE1
:102280002079002806D0FEF7C1F825716078002873
:1022900008D1F5E7102255480199FEF707FF60784D
:1022A0000028EDD003210691534C2170B869FDF749
:1022B000A4FF0590E070F869FDF79FFF05462071C7
:1022C000BE683046FDF799FF3C460746FDF7DFFF45
:1022D0000146304600F093F94142414178004118EF
:1022E000049145484170E6683046FDF786FF074691
:1022F000FDF7CDFF0146304600F081F941424141F2
:10230000780040183C498870059A5540049A554019
:10231000384C4540069845404D7106223348384BAD
:10232000FFF7CEF9207800289AD1344C2569A168AE
:10233000284600F09DF90646A0606069E1680590B6
:1023400000F096F90490E0607F20C70506963046BD
:10235000394600F075F9002809D12068801EFDF784
:1023600096FF0146069800F078F9002803D10298FC
:10237000C00745402561049E3046394600F055F9B6
:10238000002801D0274606E00298C0070599414081
:10239000274605916161FD693046294600F02FF915
:1023A000002818D0BC690698214600F056F900288C
:1023B00011D17868FDF76BFF0146204600F058F90F
:1023C0000146069800F026F9002804D10120C00734
:1023D0000599414079613046294600F026F90028E8
:1023E0000298039D034C00D046E746E730010020E9
:1023F0000038014090000020B801002000000020BB
:10240000FFFF00000000C04043088B421AD30022A7
:1024100003098B4279D3030A8B425ED3030B8B42B1
:1024200042D3030C8B4227D30902FF2212BA030CBA
:102430008B4202D31212090203D0030B8B4233D317
:102440001AE0D3E0411A8041401C704703460B4319
:1024500071D443088B42F5D3002203098B4254D335
:10246000030A8B4239D3030B8B421DD3030C8B42DF
:1024700002D394466EE0090AC30B8B4201D3CB030F
:10248000C01A5241830B8B4201D38B03C01A5241B5
:10249000430B8B4201D34B03C01A5241030B8B42B7
:1024A00001D30B03C01A5241C30A8B4201D3CB02A2
:1024B000C01A5241830A8B4201D38B02C01A524187
:1024C000430A8B4201D34B02C01A5241030A8B428A
:1024D00001D30B02C01A5241CDD2C3098B4201D3A2
:1024E000CB01C01A524183098B4201D38B01C01A20
:1024F000524143098B4201D34B01C01A5241030997
:102500008B4201D30B01C01A5241C3088B4201D345
:10251000CB00C01A524183088B4201D38B00C01AF2
:10252000524143088B4201D34B00C01A5241411A19
:10253000524110007047CA0F00D04942031000D327
:102540004042534000229C4603098B422DD3030A8C
:102550008B4212D38901FC2212BA030A8B420CD39C
:10256000890192118B4208D3890192118B4204D3C5
:10257000890137D0921100E08909C3098B4201D348
:10258000CB01C01A524183098B4201D38B01C01A7F
:10259000524143098B4201D34B01C01A52410309F6
:1025A0008B4201D30B01C01A5241C3088B4201D3A5
:1025B000CB00C01A524183088B4201D38B00C01A52
:1025C0005241D9D243088B4201D34B00C01A524129
:1025D000411A00D201465241104663465B1000D3B7
:1025E0004042704763465B1000D3404201B5002172
:1025F000004201D0C9430846C046C04602BD10B5DE
:1026000000F07CF8EFF30080400001D5012010BD00
:10261000002010BD10B500F09BF8EFF300808000A3
:1026200001D5012010BD002010BD10B500F090F8BC
:10263000EFF300804000800F012800D0002010BD83
:1026400010B500F0AFF8EFF300804000800F0128D4
:1026500001D0012010BD002010BD10B500F0A2F87F
:10266000EFF30080800001D4012010BD002010BDD8
:1026700070B50125ED0704004C4020D4441A01D266
:10268000001B0919C60D4B00F2B2FF2A29D01B0E00
:102690002CD000020C0228432C43D31ADC4005192D
:1026A00010D2280A02D3401C6D0611D0761EF60502
:1026B0008019FF2A00DA70BDC00DC00570BD6940E9
:1026C00000F0A0F801200543C541521C761CE8E744
:1026D00064089C40C90161408900E7D10124A043FE
:1026E000E4E71B0E440200D0034870BD002AFCD171
:1026F000C00FC00770BD00BF0000C07F0123DB0515
:1027000002000A430DD4DA4203D49A4207D4884225
:102710007047D84214D4D94212D4884270478042BC
:102720007047DA4203D59A42F9D5814270475B007F
:102730004200DA4204D24A00DA4201D281427047B2
:1027400010B5024AFDF7AEFD10BD00BF090012042E
:102750000123DB0502000A430DD4DA4203D49A4276
:1027600007D488427047D84214D4D94212D4884240
:10277000704780427047DA4203D59A42F9D58142C8
:1027800070475B004200DA4204D24A00DA4201D2CA
:102790008142704710B5024AFDF784FD10BD00BFAD
:1027A000090013040123DB0502000A430DD4DA42B9
:1027B00003D49A4207D488427047D84214D4D942ED
:1027C00012D48842704780427047DA4203D59A4259
:1027D000F9D5814270475B004200DA4204D24A00D8
:1027E000DA4201D28142704710B5024AFDF75AFD24
:1027F00010BD00BF0900160470B50125ED070400E7
:102800004C4022D4441A02D26C40001B0919C60D58
:102810004B00F2B2FF2A4BD01B0E50D000020C022C
:10282000A8432C43D31ADC40051B05D5AD0019D3B2
:102830006D08761E521E37D0F605280A01D280197F
:1028400070BD70416D0603D070BD6940FFF716FF83
:102850009C4009026140490001D0401E70BD012426
:10286000A04370BD6D081DD001202B0C01D12D049B
:1028700010302B0E01D12D0208302B0F01D12D016C
:10288000001DAB0F01D1AD00801CEB0F01D16D001D
:10289000401C361A121A6D00680AF5054019012A03
:1028A00002DB70BD002070BDC036300AC00770BDAD
:1028B0001B0E440201D1FF2B00D1024870BD002A3B
:1028C000F0D070BD0000C07F0000000000000000DC
:1028D00001020304060708090000000001020304C6
:1028E00002030405060708090A0B0C0D0E0F101051
:1028F0000102030405060708090A0B0C0D0E0F1050
:102900002029000800000020300000001801000805
:10291000502900083000002010080000380100088D
:1029200028000000040000000000004100000041F9
:102930000000003F0000003F0000C0400000804158
:10294000010000000400000000127A0000000000F6
:04000005080000BD32
:00000001FF
