:020000040800F2
:1000000038080020DD010008CD290008CB290008B0
:1000100000000000000000000000000000000000E0
:10002000000000000000000000000000D1290008CE
:100030000000000000000000CF290008D3290008BC
:10004000EF010008EF010008EF010008EF010008D0
:10005000EF010008EF010008EF010008EF010008C0
:10006000EF010008EF01000849160008EF01000841
:10007000EF010008EF010008EF010008EF010008A0
:10008000EF010008EF01000800000000EF01000888
:10009000EF010008EF010008EF010008EF01000880
:1000A000EF010008EF010008EF010008E53000084B
:1000B000EF01000800000000EF01000800F002F866
:1000C00000F061F812A030C8083824182D18AC428E
:1000D00001D100F058F80FCCA246AB460CA730CFA8
:1000E0002D1B083F3F197C427F1E54442D090426D6
:1000F000F441641EAC4201D300F045F801263342BE
:1001000000D0FB1A3343984754465D46DFE70000B2
:10011000AC390000CC390000103A02D378C878C15D
:10012000FAD8520701D330C830C101D504680C6039
:1001300070470000704700000023002400250026BF
:10014000103A01D378C1FBD8520700D330C100D593
:100150000B60704710B5662902D103F015FC10BD85
:10016000782902D100F0A2F810BD002010BD1FB503
:1001700000F02AFD04000020002103F0C3FAE06033
:100180001FBD10B510BD01F01BF91146FFF7EFFFC1
:1001900003F02CF801F033F903B4FFF7F2FF03BCCE
:1001A00001F0DEF970B505460C46164602E00FCCAC
:1001B0000FC5103E102EFAD2082E02D303CC03C571
:1001C000083E042E07D301CC01C5361F03E0217879
:1001D0002970641C6D1C761EF9D270BD07488047DB
:1001E00007480047FEE7FEE7FEE7FEE7FEE7FEE71B
:1001F00004480549054A064B70470000DB29000802
:10020000BD00000838020020380800203804002013
:10021000380400200FB41CB5084B06AA7B4469467D
:100220000090059800F0B7FC04460020694600F0F5
:10023000C5FC20461CBC08BC04B018479D09000042
:10024000F8B50E460446002020622046E168884743
:10025000002829D0252802D06268A16820E0E16842
:1002600020460027884705001ED028464138192817
:1002700002D80127FF022035324620462760294652
:10028000FFF768FF002808D0012804D0F61DF60803
:10029000F6000836D9E7361DD7E762682846A16818
:1002A0009047206A401CCFE7206AF8BD70B504462D
:1002B0000D4621461068C046C0462188090502D572
:1002C0000F4A7A4402E00E4A7A440E322346002155
:1002D000243305E006070009360F965D5E54491C7D
:1002E0000028F7D120780023000705D5702D03D012
:1002F000002901D002231132204600F0E4F970BD3C
:10030000D2360000F8B5042A2CD3830712D00B781C
:10031000491C0370401C521E83070BD00B78491CEC
:100320000370401C521E830704D00B78491C0370D5
:10033000401C521E8B079B0F05D0C91ADF002023DB
:10034000DE1B08C90AE0FFF72DFFF8BD1D4608C9EE
:10035000FD401C46B4402C4310C0121F042AF5D2A5
:10036000F308C91A521EF0D40B78491C0370401CC4
:10037000521EEAD40B78491C0370401C012AE4D4B5
:1003800009780170F8BD01E004C0091F0429FBD2FF
:100390008B0701D50280801CC90700D0027070470E
:1003A00000290BD0C30702D00270401C491E02294D
:1003B00004D3830702D50280801C891EE3E7002254
:1003C000EEE70022DFE70000002203098B4273D32F
:1003D000030A8B4258D3030B8B423CD3030C8B4252
:1003E00021D312E003460B437FD4002243088B4203
:1003F00074D303098B425FD3030A8B4244D3030BAC
:100400008B4228D3030C8B420DD30902FF2212BA70
:10041000030C8B4202D31212090265D0030B8B42EC
:1004200019D300E0090AC30B8B4201D3CB03C01AD6
:100430005241830B8B4201D38B03C01A5241430BB1
:100440008B4201D34B03C01A5241030B8B4201D3A1
:100450000B03C01A5241C30A8B4201D3CB02C01A0C
:100460005241830A8B4201D38B02C01A5241430A84
:100470008B4201D34B02C01A5241030A8B4201D373
:100480000B02C01A5241CDD2C3098B4201D3CB011A
:10049000C01A524183098B4201D38B01C01A5241C9
:1004A00043098B4201D34B01C01A524103098B42CD
:1004B00001D30B01C01A5241C3088B4201D3CB00B8
:1004C000C01A524183088B4201D38B00C01A52419B
:1004D00043088B4201D34B00C01A5241411A00D24B
:1004E00001465241104670475DE0CA0F00D04942B4
:1004F000031000D3404253409C46002203098B4224
:100500002DD3030A8B4212D38901FC2212BA030AAB
:100510008B420CD3890192118B4208D3890192112D
:100520008B4204D389013AD0921100E08909C309B2
:100530008B4201D3CB01C01A524183098B4201D3B4
:100540008B01C01A524143098B4201D34B01C01A9F
:10055000524103098B4201D30B01C01A5241C30817
:100560008B4201D3CB00C01A524183088B4201D386
:100570008B00C01A5241D9D243088B4201D34B00A1
:10058000C01A5241411A00D20146524110466346F8
:100590005B1001D34042002B00D5494270476346AF
:1005A0005B1000D3404201B50449002802DC491C1D
:1005B000084000E00846C046C04602BDFFFFFF7F7E
:1005C00070477047704700000121C9050123411899
:1005D00042001B06D3185B0E0AD0C1100722D206B8
:1005E000891840075242D14201D5520089187047FC
:1005F000090208D50146002A03D0C10FC90700200F
:10060000704710467047420202D0002002497047EE
:10061000072109050143F4E70000F87F10B5014602
:100620009E240002CA15A307002A02D01843002AFC
:1006300004DBA21A002A0CDDD04010BD1206120EF7
:1006400001D140004008A21A03D4D0404042002803
:10065000F3DDFF2248001206904201D9002010BDB0
:10066000C817C043584010BD1F22030C02D10F22EF
:1006700000041CD0030E01D10002083A030F01D17F
:100680000001121F830F01D18000921E002801DBA0
:100690004000521ED20551180212511819229040E2
:1006A00004D3491C002801D1490849000846704775
:1006B000C10FC90700D04042012292071143D3E77E
:1006C00001218907D0E7FFB504460D4681B02430EB
:1006D00000902168880604D51022E06991432160CA
:1006E00000E00120A84201DD471B00E0002704983C
:1006F000A1697A191018081AA0612078C00602D4DE
:100700002046C046C046002608E003986268A168FB
:10071000805D9047206A401C761C206204988642C7
:10072000F3DB2078C0060AD52046C046C04606E066
:100730006268A16830209047206A401C20623846D9
:100740007F1E0028F4DC07E000986268A168405D25
:100750009047206A401C206228466D1E0028F3DC6A
:100760002046C046C0462078000602D5022005B0CB
:10077000F0BD0120FBE70000FFB50C461E468FB020
:1007800003CA089009914F007D0D00D16D1E002114
:1007900008460020C0460321099A89050840002A1E
:1007A00003DA8200801840080840800D01280A9072
:1007B00002DD0020C0430A90089807430DD0F0489E
:1007C000F049281848430714189800281DD075428E
:1007D000291E1DDD0A9842421BE01898012802D00C
:1007E0000020302104E00020F24305E02154401CA9
:1007F000B042FBDB30460022189B002121540F99A8
:100800008B600A60486013B0F0BDBD1B6D1CDFE754
:100810000A9A002900DA69420BA800F05BFA0BABD8
:1008200007CB03AB07C30899099800F0BFFA6B46E2
:1008300007C30146D4480918002D00910BDDD249A9
:1008400003980A9A49424018002303A90390684676
:1008500000F01CFD08E003990A9A0023081803A978
:100860000390684600F0BCFC6B4607C30004000C14
:1008700003D00020C043410800E01046189A002A27
:1008800003D00022009215461EE0751E05D400F02C
:100890009FF9303262556D1EF9D501220843079643
:1008A00002D000227F1C04E02078302801D10022F1
:1008B0007F1E002A069787D01EE0112D07DA00F070
:1008C00087F9303262556D1C02460A43F5D1084360
:1008D00003D00098002819D00EE00021681E05E022
:1008E000235C625C63542254401E491C8142F7DB46
:1008F000A81B401E07950690079A18990020A0543F
:100900000F98079B069A81600CC07CE71126002097
:10091000189059E7D21DF0B50D460446D10893B0A2
:10092000C90003C90C900D9102F09CFE02460D987F
:10093000C00F01D02D2007E02068810701D52B20B2
:1009400002E04007C00F4001032A0F9001D0072AA0
:1009500005DB03462946204600F078F90EE12078B1
:10096000800601D5E76900E006272846652D04D0FA
:10097000662814D0672D69D12DE00020112F00903A
:1009800001DB112300E07B1C0CAA03A910A8FFF7D0
:10099000F3FE1199002610987D1C0E9142E0012073
:1009A0003B460CAAC0070B900120009003A910A899
:1009B000FFF7E2FE119D12981099002600280E956F
:1009C00001D1781C0D18781B02D446427D1C761E7E
:1009D000E81B00903AE0012F00DA01270020112FD8
:1009E000009001DD112300E03B460CAA03A910A8EA
:1009F000FFF7C2FE11993D46109800260E9121780E
:100A000009070BD40E99A94200DA0D4603A9012D5E
:100A100004DD4A19203AD27F302A06D0B84201DAE2
:100A2000011D04DA012100910FE06D1EEFE700289F
:100A300002DC86192D1A03E0411CA94200DD0D4697
:100A4000801B401C00900120C0070B9020780007FD
:100A500005D40098A84202DB0020C04300906946FC
:100A60000020C8720B98012102AF0337C9078842E2
:100A700025D0022010902B2011900B9800280BDA23
:100A800040420B902D20119006E00B9800F04EFC98
:100A900030317F1E0B9039701099481E002910903C
:100AA000F3DC0B980028F0D111987F1E3870208855
:100AB000000501D5452000E065207F1E387001A8A3
:100AC000C01BC01D0B900F98002800D001204119B9
:100AD0000098C01709180B980818A169081A401E39
:100AE000A0612078C00602D42046C046C0460F98B8
:100AF000002805D06268A1689047206A401C2062E7
:100B00002078C00625D52046C046C04621E0002EEC
:100B100007DB0E98B04204DD03A86268805DA1681F
:100B200002E06268A16830209047206A761C401C71
:100B300020620098401E002800900AD100F044F87E
:100B4000C06862680168405CA1689047206A401CE8
:100B5000206228466D1E0028D9DC07E062683878DC
:100B6000A1687F1C9047206A401C20620B99481E98
:100B700000290B90F2DC2046C046C046032042E626
:100B800001FCFFFF104D0000E1DFFFFF01694A1C7F
:100B900002610878704700B58FB00291002105917D
:100BA0000549019379440391114604906846FFF783
:100BB00047FB0FB000BD0000E5FFFFFF0A681070A3
:100BC000521C0A6070470000004870475000002027
:100BD0000B4670B5024689078008084319469D08F0
:100BE000141AA94125090807054308092C19484189
:100BF000250A01060D43010A2C194141200C0D0460
:100C000028430D0C00194D41002140194D41C008E9
:100C100069070843E908840F8D00254384002418E0
:100C20004D4124196D41121BAB4107E00925ED43ED
:100C30002C11521963410024401C61411C460A25B5
:100C40000026551BB441F1D270BD0000F8B51F4617
:100C5000044601230068DB02032601461840072AE8
:100C600005DB002801D017A506E017A504E0002841
:100C700001D016A500E016A5102081432160A069CF
:100C8000C01E002FA06101D0401EA0612046C046BA
:100C9000C046002F09D038466268A1689047206A94
:100CA000401C2062C01C206206E0206AFAE76268ED
:100CB0002878A1686D1C9047761EF8D22046C04661
:100CC000C046F8BD4E414E006E616E00494E460072
:100CD000696E6600F7B516468AB0334878446C46AC
:100CE00003467C33C06F5A689B680DC42E48784415
:100CF000763003AC0DC80DC43720C0010818372169
:100D00001B30FFF76FFB05460C46803D1B3C02D5B0
:100D10006442012000E000200027099010E0E00775
:100D20000CD00C2020497843794432464C39411884
:100D30006846012300F054FA6B4607C364107F1C19
:100D4000002CECD1184F7F442E3F16E0E80712D05C
:100D50002001C0190EC80691089307920068F0425E
:100D600001D1981908903246012306A903A800F082
:100D700037FA03AB07C36D10641C002DE6D1099848
:100D8000002806D032466946012303A800F07EFA07
:100D900005E001233246694603A800F021FA0A9BC8
:100DA00007C30DB0F0BD0000E02C0000034640007A
:100DB0000A4610B5400D0BD00121C9070F24A4022B
:100DC00000191C0364082143540D2143D20207E09B
:100DD00000210120F2E7D40F490021435200401EB8
:100DE0000029F8DADB0FDB07184310BDFFB50D460D
:100DF000144685B04868516802F01BFC00910190D0
:100E0000A868A16802F015FC02910390A8686168C7
:100E100002F00FFC029A12188242029201D20120C3
:100E200000E00020019A0B18D2180028019202D08D
:100E30008A4202D903E08A4201D2012000E0002068
:100E40000099081800906868A16802F0F2FB029A05
:100E500012188242029201D2012000E00020019A81
:100E60000B18D2180028019202D08A4202D903E05E
:100E70008A4201D2012000E0002000990818009069
:100E80002868216840004900400849084018FA498C
:100E9000471814E001994000C90F084300900198D9
:100EA00002994000C90F084301900298039940003D
:100EB000C90F08430290039840007F1E03900098DA
:100EC0000028E7DA0898002801D0EC4E00E0002660
:100ED000B74201DA012000E00020002804902AD067
:100EE000F71BF806C00E15D0029B2021091A039AA1
:100EF0008B401A430392029A019BC2408B401A43D3
:100F00000292019A009BC2408B4000991A430192C1
:100F1000C14000917B110DD06F460320C11A03D54B
:100F200000218200B95003E08A008100BA587A504B
:100F3000401EF3D5374603980299002800D00120BF
:100F4000014308980291002808460CD0002800D0E0
:100F500001200199019A490508430121D20AC902D9
:100F6000D202019200E001210E9B0122D207012B47
:100F700002D0002B03D013E0002807D120E09042DC
:100F800004D890420CD1019B0B4209D0019B591807
:100F9000019105D10099491C009101D17F1C00925B
:100FA00000280DD0102108460020C04604980028D3
:100FB00006D00F98002803D0082108460020C0461C
:100FC00028682168019B009A4840C10F0598C9070D
:100FD00039430EC009B0F0BDFFB587B0099A089833
:100FE000089953689268406889689646002203937E
:100FF00017469446089A12685300099A5B081268CB
:10100000520052089A1A9E4BD4180A9A002A01D00C
:10101000352200E040220692002201231546049268
:10102000DB07059324E0002D05D175460346039E9A
:101030004D1BB34109D375466646039B491B049D6E
:101040009841059B7519AC465F4163463B4308D008
:10105000059B049EDD0776082E435B0804960593E6
:1010600001E0521E641EC50FED0749184041521C95
:10107000069B9A42D7DB002D04D17546039A6B1A62
:10108000824101D203200CE0039A0B466B404240A0
:10109000134303D0014303D0012002E0022000E00B
:1010A0000020614601910021009702910A990029D0
:1010B00005D0614640020143704B019102E0800778
:1010C000002302909C4201DA012000E0002007008A
:1010D0003AD01A1BD006C00E15D0029D2021019CCB
:1010E000091AC5408C402543029C8C4000D0012445
:1010F0002543019C0295009DC4408D4000992C43DE
:101100000194C140009154111DD06D46022100226E
:1011100002290CD10320001B07E0002804DB860015
:10112000AE59002E00D00122401C0328F5DB081B1D
:1011300002D588002A5004E08000285810438A0015
:10114000A850491EE3D51C460A98002802980CD0E6
:10115000002800D001200199019A49050843012186
:10116000D20AC902D202019200E00121109B0122A1
:10117000D207012B02D0002B03D013E0002807D1A7
:101180001FE0904204D890420CD1019B0B4209D041
:10119000019B5918019105D10099491C009101D179
:1011A000641C009200280CD0102108460020C04684
:1011B000002F06D01198002803D0082108460020EF
:1011C000C04608980999019A009B00680968484040
:1011D000C10F0798C907214382600AC00BB0F0BD58
:1011E00000B585B0019300920A460146002302A88B
:1011F000FFF7FCFD02A807C805B000BDFFB50A4611
:101200001F4685B00799019301230091014602A86A
:10121000FFF7ECFD02990398049ECA0F4900D2071C
:1012200000920F22490892028C1A0021002800DB4C
:101230000C46450013486D08844214D3079A002ACF
:1012400004DA441E0026104DF64302E004460D4623
:101250000E46102108460020C046002F03D004216E
:1012600008460020C0462005E90A084300990843C3
:101270006905F20A1143ADE602C0FFFF013C000020
:10128000FF3F0000FF070000FFFFFF7F00B585B0B4
:10129000019300920A460146002302A8FFF79CFE34
:1012A00002A807C8A8E7FFB50A461F4685B00799F8
:1012B000019301230091014602A8FFF78DFE0299D8
:1012C0000398049ECA0F4900D20700920F224908D2
:1012D00092028C1A0021002800DB0C4645001148C0
:1012E0006D08844214D3079A002A04DA441E0026AB
:1012F0000D4DF64302E004460D460E461021084609
:101300000020C046002F03D0042108460020C0461C
:101310002005E90A0843009908436905F20A1143C8
:1013200058E60000FF070000FFFFFF7F014680082E
:10133000081A02091018020A1018020C1018C00826
:10134000820012185200891A01E0401C0A390A2949
:10135000FBD2704710B5FF231B0644009C421DD8EA
:101360004C009C421AD80346124A0B4307D4401A39
:1013700002D3EFF3008010BDEFF3008010BD081A18
:1013800003D3EFF30080904305E0EFF300800121E9
:101390009043C907084380F3008810BD0D231B0448
:1013A0001A4204D01146002000F08AF810BD00F067
:1013B0009FF810BD000000900048704730000020EA
:1013C0007546FFF7F9FFAE46050069465346C0086B
:1013D000C000854618B020B5FEF70AFF60BCB646CF
:1013E00000260027C0C5C0C5C0C5C0C5C0C5C0C592
:1013F000C0C5C0C5403D490849008D46704710B57D
:101400000446C046C0462046FEF7C6FE10BD00009A
:1014100082078B079A423FD170B5920F0AD00324FE
:1014200002780B78401C491C002A33D09A4231D1F3
:101430002042F5D1214EF40104C808C9951B9543FB
:10144000254018D19A420FD104C808C9951B95436D
:10145000254010D19A4207D104C808C9951B95436D
:10146000254008D19A42E7D012BA1BBA01209A420D
:1014700000D2404270BD12BA1BBA2DBA1824100017
:10148000E0401900E140401A05D12E00E64002D1AB
:10149000083CF4D1D01A70BD02780B78401C491C6E
:1014A000002A09D09A4207D102780B78401C491CC7
:1014B000002A01D09A42EFD0D01A704701010101F1
:1014C000C80212D54803400F002804D0C803C04307
:1014D000012188407047EFF30080000100090321DB
:1014E0000907084380F30088704700207047000018
:1014F00010B5024800F004F810BD00000000C07FE5
:1015000010B50C461107090F092904D00A290AD081
:1015100008290CD104E011460820FFF7D1FF06E0AE
:10152000510606D501E0510601D50120C00721462C
:1015300010BDD10607D501010909CC084907000EE5
:101540000006044309E0410F20024907000A014355
:10155000200E00061D22D14101430846E7E70000A6
:1015600001491820ABBEFEE72600020070470000CC
:10157000B0B52A4DE878012826D0042821D00228C9
:1015800021D1EB7969794B4028794340AA795340BE
:10159000DBB2022B33D10E283AD1114338D1204C83
:1015A00023A106222046FEF7ADFE1F4805221F4B51
:1015B000214601F043F92048002101700120A87064
:1015C000B0BD01F095FDB0BD697928794140C9B23F
:1015D000164B01290BD1002809D111491848086080
:1015E000012068701048042201F028F9B0BD0C49B0
:1015F000144808600C48042201F020F9B0BD0849E5
:101600000848086008480422084B01F017F9B0BDEB
:101610000E28D8D002490948F3E7C04690000020C0
:10162000B401002002FFFF022C010020FFFF000098
:101630007069670A0D0000000000002002DDFF2035
:101640000101141401FFFF0180B5034800F04CF8BC
:10165000024800F049F880BDE8000020A400002006
:10166000EFF3108072B6FEE710B5014620314A78DC
:10167000022A12D1026813680E24A3431360136870
:101680000124A3431360C26B006C23468340536064
:101690004C70002000220A7010BD042282630120D9
:1016A00000220A7010BDB0B5014620314A78022AE6
:1016B00016D1026813680E24A34313601368012532
:1016C000AB431360C26B036C2C469C4054600024F7
:1016D0000C704D70416B002900D088472046B0BD8A
:1016E000042181630120B0BDF0B585B0C16B026CEF
:1016F00004273C460292944003910E6821463140F3
:101700004B424B41049005682868014639404A42E3
:101710004A411A4330D02B46012202270146394064
:101720004C424C41029DAF40374201921146324635
:1017300000D02146049E3446203400292CD00821B4
:101740000840474247412846EA401107019D00D51D
:101750003D46002D1ED119680E22914319600121CA
:101760000A468240039B5A60B16300222270617076
:10177000316B00290CD10DE02968890602D4296853
:10178000B943296003994C60049EF16A002901D095
:101790003046884705B0F0BD1968890605D4196838
:1017A0000A2291431960012161700021217003997F
:1017B0004F60B16A0029EBD1ECE70000F0B585B0CD
:1017C000002830D00546203502216970C4C804685D
:1017D0004168019181680291C16803910169049196
:1017E0001168134B0B4033433B43234301990B4395
:1017F00002990B4303990B4304990B431360002494
:10180000C4620C4901632C700B490C385218142126
:101810000646104601F012FE800030640120687018
:10182000204605B0F0BD0124204605B0F0BDC046FD
:101830000FC0FFFF00000240F8FFFDBFB0B5044637
:1018400000F0ECF80546601C02D0914800780419BD
:1018500000F0E4F8401BA042FAD3B0BDF0B58CB064
:1018600005900C68002C00D1CBE06748059A8242B5
:1018700001D0052000E003200090203201920023D7
:101880001D460A9309910CE032433A605B1C0C68D8
:101890002046D8400A9A121D0A92AD1C002800D199
:1018A000AFE0012706979F403C400794EED002939B
:1018B00003242246AA40D0432B464D682E4626409C
:1018C000721E012A0495039313D808900598826824
:1018D000089C2240CC689C4014438460EA06D20FE6
:1018E000029B9A404468BC430746089814437C60B6
:1018F00007E0032E059F029B03D126460499039D12
:101900001FE0FA68024009998C68039DAC401443BB
:10191000FC60022E049914D11C2108900A98014001
:101920000F228A40DC08A400019806599643099FBB
:101930003A698A403243025108987968059F032624
:101940000E40AE403A68024032433A608903890F44
:1019500009999BD059480168069E3143016001688E
:1019600031400B910322194691430B9A2848049168
:10197000085808900922D2060598904209D0254AB5
:10198000904207D0244A9042009E204F03D1022665
:1019900001E000261D4F0C220A9802400F249440BB
:1019A0000899A1431A48049C201896400E430660EB
:1019B000BC6809994868C20210D5079E3443BC60D0
:1019C000FC68820210D4B443FC607C68820310D4AB
:1019D000B4437C603A68C00311D555E7079EB44311
:1019E000BC60FC688202EED53443FC607C688203F4
:1019F000EED534437C603A68C00300D544E7B24377
:101A000043E70CB0F0BDC046000C004800040140A4
:101A1000080001400004004800080048054800682C
:101A20007047C0461A48007802490A6810180860D2
:101A30007047C0463402002080B5CA4801681022B1
:101A40000A430260032000F005F800F023F80020AC
:101A500080BDC04670B504467D20C0000C4E317874
:101A600001F0ECFC0146C748006801F0E7FC00F01B
:101A7000B3FB0125032C08D8002806D10025E84334
:101A800021462A4600F028F87460284670BDC046FA
:101A90002400002082B0094801680122114301603E
:101AA0000168114001910199110742680A4342609F
:101AB000406808400090009802B07047181002403B
:101AC000002805D41F210840012181400148016000
:101AD0007047C04600E100E0002805D40322034619
:101AE00093430A4A9A1803E00C220240064BD2188C
:101AF0008007C00E8901C9B28140FF23834010686E
:101B0000984308431060704714ED00E000E400E0E3
:101B1000F0B587B004468078C007424F4FD001200F
:101B2000059001073A1F10680840049006D110681C
:101B300008431060106808400690069802920391CE
:101B4000394F3868C00512D405980602386830430A
:101B50003860FFF763FF05463868304207D1FFF76A
:101B60005DFF401B6428F7D9032007B0F0BD0320B8
:101B7000019000022B4F3968014012D06268024088
:101B800091420ED00598000439683A6802433A60E1
:101B90003A6882433A600846244A10403860C807D1
:101BA00030D13868214908406168014339600498A0
:101BB000002804D1029A10680399884310602168B4
:101BC000C80706D188060CD40020490512D407B0F6
:101BD000F0BD386903229043A26802433A61880647
:101BE000F2D5386910229043E26802433A6100203E
:101BF0004905ECD539694022914322690A433A618B
:101C000007B0F0BDFFF70AFF0546574E386880075A
:101C1000C7D4FFF703FF401BB042F7D9019807B0C4
:101C2000F0BDC0462010024000700040FFFCFFFFE6
:101C3000F0B581B000284DD00D460446494B1868D8
:101C400001210840A84208D21A68012082432A4391
:101C50001A601A680240AA424FD1206882075B4B83
:101C600010D5420706D5072212021B681343574AB4
:101C70001360564B1A68F0239A43A3681343534AE0
:101C80001360524BC00728D1364A11680120014029
:101C9000A94205D91168814311601168C9072CD187
:101CA0002078400706D50720000219688143E068C4
:101CB0000843186019680C220A404548082A17D1C1
:101CC0008A02120F434B9C5C404B9A6AC90333D47F
:101CD000424838E0012001B0F0BD6268181F00687A
:101CE000022A07D0012A0AD18003084605D509E057
:101CF000044629E08001084604D401B0F0BD800705
:101D00000846FAD5186803210091884310431860EB
:101D1000FFF784FE0646144F2C4B18680C21014037
:101D2000606880008142AFD0FFF778FE801BB84228
:101D3000F2D9009801B0F0BD0F210A402649895C14
:101D400001F07CFB214B444318680006000F074953
:101D5000085CC4400B4804600320FFF77BFE0020B2
:101D600001B0F0BD0020024088130000543A000882
:101D700004480068154909684905490F024A515C41
:101D8000C84070472C000020643A000810B50F4985
:101D90000B680C2018400E4A082809D19802000F41
:101DA0000C4C205C896ADB0304D40C49484310BD09
:101DB000104610BD0F231940074B595C04461046CE
:101DC00001F03CFB01462046484310BD0410024090
:101DD00000127A006C3A00087C3A000800093D00C5
:101DE000F0B587B004460120002C00D1ECE104904E
:101DF0002078C007F54E05940CD071680C20014086
:101E0000042900D08AE03068800303D56068002888
:101E100000D1D8E0207880071CD570680007800FBB
:101E200009D070680C210140082900D08EE070684C
:101E3000C00300D58AE030688007059C03D5E068C0
:101E4000012800D0BFE03068F82188432169C9002B
:101E500001433160059C2078000724D42078400796
:101E600036D42078C00600D4CCE0706B059949695F
:101E70004A1D00D1BBE0012900D00AE1042108433A
:101E80007063706B012101437163FFF7C7FD054665
:101E9000706B800700D5ADE0FFF7C0FD411B03204C
:101EA0000229F5D990E1706AE169002979D0012110
:101EB00008437062FFF7B2FD0546706A8007CDD413
:101EC000FFF7ACFD401B0228F7D9032007B0F0BD97
:101ED000012003900107F0690840029006D1F069E3
:101EE0000843F061F0690840069006980191B84FE8
:101EF0003868C00541D4039804023868204338602C
:101F0000FFF78CFD05463868204236D1FFF786FD85
:101F1000401B6428F7D9032007B0F0BD7168014069
:101F2000082903D17068C00300D56CE76268306887
:101F300001214F04002A00D1F9E0052A00D1EFE089
:101F4000012A00D009E1090408430CE13068059C2E
:101F5000E16800293AD0012108433060FFF75EFDB7
:101F600005463068800700D56DE7FFF757FD401B39
:101F70000228F6D9032007B0F0BD05988168306AC1
:101F8000944F002900D1ADE0052900D195E0012949
:101F900000D196E0039988433062306A0421884377
:101FA00091E0012188437062FFF738FD0546706AB1
:101FB000800700D452E7FFF731FD401B0228F6D915
:101FC000032007B0F0BD049807B0F0BD012188439D
:101FD0003060FFF723FD05463068800700D439E7FD
:101FE000FFF71CFD411B03200229F5D9ECE0042179
:101FF00088437063706BF821884305998969C9002B
:10200000014371630598046A002C1ED070680C218E
:10201000014008291CD1012C049800D1D4E00120F2
:10202000030471680B40F26A059D6C6AA34200D0FC
:10203000CAE00F231A40EC6AA24200D0C4E09A041E
:102040001140AA6A914200D0BEE0002007B0F0BD66
:102050000120020631680492914331604706FFF780
:10206000DDFC0546022C0AD13068384200D18AE0F6
:10207000FFF7D4FC411B03200229F5D9A4E0306806
:102080003842E2D0FFF7CAFC411B03200229F6D9EF
:102090009AE0042108437063706B012188437063E8
:1020A000FFF7BCFC0546706B8007ABD5FFF7B6FCAD
:1020B000411B03200229F6D986E00421084330623F
:1020C000306A039908433062FFF7A8FC0546306A7E
:1020D00080071BD4FFF7A2FC401BB842F7D90320AE
:1020E00007B0F0BD039988433062306A0421884309
:1020F0003062FFF793FC0546306A800706D5FFF78C
:102100008DFC411B0320B942F6D95DE002980028FE
:10211000059C00D0A5E6F06901998843F061A0E62E
:102120008A04104330600904306808431BE00A0445
:10213000904330608804316881433160FFF76EFC62
:102140000546059C3068384200D163E6FFF766FC1F
:10215000411B03206429F5D936E00A04904330601E
:102160008904306888433060FFF758FC05463068C2
:10217000384200D04EE6FFF751FC401B6428F6D9E8
:10218000032007B0F0BDF06A0F218843059AD16A99
:102190000143F1623D20000471688143906A084365
:1021A000516A014371603068049908433060FFF759
:1021B00035FC04463068384200D046E7FFF72EFC75
:1021C000011B03200229F5D907B0F0BD0010024021
:1021D0000070004088130000401E010E01D0012055
:1021E00070470749074A5060074803680B400321BE
:1021F000890759180160002090600721116070471D
:10220000FFFFFF0010E000E020ED00E070477047A6
:1022100070470000F0B587B003460168CD690C68CF
:102220002020049402900440624262410120069002
:10223000C7023E462F362E40203E701E8641164372
:102240008E6857D003938033019738460F30059539
:102250000542049D07D0E7482840012732463A400E
:10226000101800D09BE010242846204047424741E8
:102270000398006E0128069A44D00598C006069F70
:1022800045D4002F46D00124A00506407242724179
:102290000598C002069E039800D51646002E00D170
:1022A0008CE080222A4051425141059B1A06069A31
:1022B00000D50A46002A00D190E140210D406A4233
:1022C0006A415B0600D50692069A002A00D009E111
:1022D000EFF3108584F31088026813688B43136052
:1022E00085F310880021C1660299C16700F06CFB7C
:1022F00007B0F0BD996E002900D1F3E01846884779
:1023000007B0F0BD3A460598C006069FB9D51746F6
:10231000002FB8D1039F3D4658350C6288684006AF
:1023200052D4698828886A88002A00D1DAE0884275
:1023300000D1D7E00693EFF31083012282F31088D7
:1023400009256D013E68059139463768AF4337600E
:1023500083F31088EFF3108382F310880D68AE6862
:102360009643AE6083F31088029B069D2B6000238A
:102370008B660B66EFF3108382F310880A6815688A
:10238000A543156083F3108802224A66059A801AD5
:1023900082B208461146FFF739FF07B0F0BD380298
:1023A0002840464246410598C00706985CD100285F
:1023B0005DD00097059DA80761D469E022050A62F7
:1023C000FFF725FF07B0F0BD786F016849688AB252
:1023D000002A00D186E01E462B889A4200D381E075
:1023E00069808069202834D0EFF31081012080F3C8
:1023F0001088824A203206963B681E6816401E608E
:1024000081F31088EFF3108180F310883A689368A5
:102410008343936081F31088EFF3108180F3108879
:102420003A6893684026B343936081F31088029919
:10243000069A116000213966EFF3108180F310884D
:1024400038680268A243026081F31088786FFFF752
:102450000BF90220786628886988401A81B23846CC
:10246000FFF7D4FE07B0F0BD30460028A1D10F62BF
:102470005868384358600097059DA80708D5002A7A
:1024800006D0022008625868042606435E60059D57
:102490006807019F07D5002A05D004200862586804
:1024A000022606435E6022435642564105980007C5
:1024B000069A009D00D53246002A04D10820086201
:1024C0005A6802435A60A806049D05406A426A4160
:1024D000059E3E42069D07D1002D08D05868002871
:1024E000039D0DD107B0F0BD1546002DF6D10F624A
:1024F0005868029A1043586058680028039DF1D02C
:102500000298064062426241002E00D00692069870
:10251000002809D1AA6E002A06D02C4628461D465E
:1025200090472B4625462168586828220240886833
:102530004021084080181E4606D12846FFF768FE55
:102540000020706007B0F0BDEFF31080009F87F3AC
:102550001088092252012B681C6894431C6080F388
:102560001088EFF3108087F310882A689368BB43C4
:10257000936080F31088286E01280BD1EFF3108050
:10258000009A82F310882A6813681024A34313600A
:1025900080F310880298306000202866A8662868BA
:1025A0008068400621D5EFF31080009A82F31088EE
:1025B0002A6893688B43936080F31088696F0029C1
:1025C00013D00D4848630846FFF76DF8002800D186
:1025D00088E7686F416B884707B0F0BDC16E00297E
:1025E00000D17FE7884707B0F0BD2846FFF710FE0F
:1025F00007B0F0BD20010004812B0008DFFEFFFFC3
:10260000B0B500281DD00446C06F002805D1782041
:1026100000212154204600F02BF82420E067206898
:1026200001680125A9430160606A002802D02046A4
:1026300000F0D4F9204600F07FFB002803D02846A4
:10264000B0BD0120B0BD0920C00221684A688243A4
:102650004A6088682A229043886008680122024301
:102660000A60204600F024FA05462846B0BD000066
:10267000F0B587B0044600260696059604960396A4
:10268000029600682B49884201D007B0F0BD2A4865
:102690004168012206929303194341604168194041
:1026A00001910199510402680A43026000680840E0
:1026B00001900496022003900320059040020290AE
:1026C00001980920C00602A9FFF7C8F81B4D202079
:1026D00080271B49143142C52E606F60AE60EE60EA
:1026E00028616E61083D2846FFF768F8002801D090
:1026F000FEF7B6FF6C626567124D10201049296025
:10270000291DC1C12E616E61AE61EE612846FFF7E1
:1027100055F8002801D0FEF7A3FF6C6225671B2443
:10272000002120460A46FFF7D7F92046FFF7C8F9EF
:1027300007B0F0BD0038014014100240A400002092
:102740001C000240E8000020F0B581B08023C3588F
:10275000202B12D1012400290CD0002A0AD00123F9
:102760001C038568A5420CD1CC070AD00469002C53
:1027700007D11C46204601B0F0BD0224204601B01E
:10278000F0BD0024046605686D682D020AD5EFF3DC
:10279000108583F310889B06066837681F433760EF
:1027A00085F3108800F05EFB204601B0F0BD00000C
:1027B000F0B581B0144FFA78144C15A12046FDF7FE
:1027C00029FD82B2154E164D304621462B4600F0AB
:1027D00035F83A7913A12046FDF71CFD82B2304648
:1027E00021462B4600F02AF87A7911A12046FDF700
:1027F00011FD82B2304621462B4600F01FF8FEF74D
:10280000B7FE01B0F0BDC04690000020B40100202A
:10281000312D202578202020202020002C01002090
:10282000FFFF0000322D20257820202020202000CE
:10283000332D20257820202020202000F0B585B0E1
:102840000446C06F202810D1012000290BD0002A97
:1028500009D001200503A668AE4209D1CE0707D0F2
:102860002669002E04D105B0F0BD022005B0F0BDF0
:10287000019302912746503720468430002103916E
:1028800001602120E0671646FFF7C8F804907E80BB
:102890003E80A068A84202D1206900285ED0029D37
:1028A000019E039A2168788800285ED0701C454BF1
:1028B0002ED0002E49D00392C869000608D4FFF735
:1028C000ADF80499401AB04266D821680868F3E769
:1028D000002D03D0287808856D1C07E0039A108826
:1028E000384B18400885921C039200257888401EBA
:1028F000788078880028DFD137E010881840088574
:10290000921C00257888401E7880788800282CD07A
:10291000C869000608D4C869000605D4C86900065D
:1029200002D4C8690006F3D5002DE6D028780885C2
:102930006D1CE7E7108818400885921C00257888F0
:10294000401E7880788800280FD0C869000621D5FD
:10295000002DEFD0287808856D1CF0E70025029A3D
:10296000019E216878880028A0D1CA6900205206FB
:1029700013D4002E0ED0721C13D1CA6952060CD487
:10298000CA69520609D4CA69520606D4CA695206EF
:10299000F3D502E0FFF742F803202021E16705B0FC
:1029A000F0BD0546FFF73AF80499401AB042F3D853
:1029B00020680168C0694006F4D528462021E167F7
:1029C00005B0F0BDFF0100007047FEE7FEE770476D
:1029D000704780B5FFF726F880BD7047B0B5416AF3
:1029E0000A070CD4CA0714D18A071CD44A0724D476
:1029F000CA062CD48A0634D44A063CD44CE00122C0
:102A0000D20303685C689443426B22435A60CA074E
:102A1000EAD00122520403685C689443826A22432C
:102A20005A608A07E2D50122120403685C68944365
:102A3000C26A22435A604A07DAD501229204036827
:102A40005C689443026B22435A60CA06D2D50122C5
:102A5000120303689C689443826B22439A608A063F
:102A6000CAD50122520303689C689443C26B224377
:102A70009A604A0610D501221305026854689C43E7
:102A8000056C2C4354609D4206D103235B055468BA
:102A90009C43436C23435360090607D50121C904B5
:102AA000026853688B43806C18435060B0BD0000CF
:102AB000F0B583B00446064678360025F560FEF78B
:102AC000ADFF034620680168090721D502952B4810
:102AD000009001256905002220461F4600F024FAD7
:102AE000002812D0EFF3108085F3108821680A685F
:102AF00080239A430A6080F31088032020227C21DF
:102B0000029D6250357003B0F0BD20683B46029DC7
:102B10000068400726D5194800900127B905002212
:102B2000204600F001FA00281CD0EFF3108087F354
:102B3000108809214901226813688B43136080F3D0
:102B40001088EFF3108087F3108821688A68BA43F1
:102B50008A6080F310880320202280216250357023
:102B600003B0F0BD2020E067B060256664212A46EE
:102B700028466250357003B0F0BDC046FFFFFF012C
:102B800080B5406A0146523100220A8152214252E8
:102B9000FFF73EFB80BDF0B581B08021415802684F
:102BA000222910D1014658318B88928C1A40436DEE
:102BB0001A804A88521E4A809A1C42654A88002A16
:102BC00007D001B0F0BD906908210143916101B0C7
:102BD000F0BD03468033EFF31084012282F31088A6
:102BE00009256D0106683768AF43376084F31088A4
:102BF000EFF3108482F310880568AE689643AE60E8
:102C000084F3108820241C600023436683660468D4
:102C1000646824020AD5EFF3108482F310889506C5
:102C200006683768AF43376084F31088046E012C60
:102C300015D10366EFF3108382F3108804682568CA
:102C400010229543256083F310880368DC69E4064D
:102C500000D51A620988FFF7D9FA01B0F0BDFFF775
:102C6000A7FD01B0F0BDF0B581B0802141580268E8
:102C7000222911D1014658318B88928C1A40436D1C
:102C80001A704A88521E4A80426D521C42654A8818
:102C9000002A07D001B0F0BD90690821014391617D
:102CA00001B0F0BD03468033EFF31084012282F3BC
:102CB000108809256D0106683768AF43376084F3D3
:102CC0001088EFF3108482F310880568AE6896438D
:102CD000AE6084F3108820241C6000234366836662
:102CE0000468646824020AD5EFF3108482F3108824
:102CF000950606683768AF43376084F31088046E22
:102D0000012C15D10366EFF3108382F31088046859
:102D1000256810229543256083F310880368DC69D9
:102D2000E40600D51A620988FFF770FA01B0F0BD19
:102D3000FFF73EFD01B0F0BDB0B504460068016884
:102D40003E4A0A40A16823690B4365691D43154348
:102D5000E1690D4305600322120343689343E2686F
:102D60001A434260A269236A13430B221202856848
:102D700095431D438560324A904209D0314A9042C2
:102D800008D1314800688007000F30A2135802E0D4
:102D9000002300E010230125EA03304891420FD1BF
:102DA000082B46D87B441B795B009F440442244295
:102DB000194242422300FEF7DBFF00281BD137E017
:102DC000082B36D87B441B795B009F4404322532A4
:102DD0000E3232322400FEF7CBFF00281CD127E050
:102DE000FEF7D4FF002806D122E0FEF7CFFF00282F
:102DF00012D11DE01046400061684A08101800F02A
:102E00001DFB0246103A16498A4212D201400007C1
:102E1000400F08430AE0104661684A08101800F0A5
:102E20000DFB014610390E4A914202D22168C8605A
:102E300000250020A066E0662846B0BDF369FFFFCC
:102E40000044004000380140301002400000000003
:102E500004000000080000000200000000127A00D8
:102E6000F0FF0000B0B55823C252416500218166D1
:102E7000034658335A80846802468032002C09D0B9
:102E800001252D03AC420ED10469002C08D1234C3E
:102E90009C8009E00469002C02D07F249C8003E020
:102EA000FF249C8000E09980516022211160EFF3A3
:102EB0001082012181F3108803689C680C439C6098
:102EC00082F3108802690B0384689C4204D1002AB3
:102ED00014D0134A826603E0114B8366002A0FD098
:102EE000EFF3108281F3108809214901006803681B
:102EF0000B43036082F310880020B0BD094A82664C
:102F0000EFF3108281F310880068016820230B43DF
:102F1000036082F310880020B0BDC046FF010000AE
:102F2000672C0008972B0008F0B585B01F461546A2
:102F30000E460368D9693140891B4A424A41002143
:102F4000AA4222D10A9C002C22D00391611C24D1D8
:102F5000D9693140891B4A424A41AA4231D1D969D3
:102F60003140891B4A424A41AA422AD1D96931409B
:102F7000891B4A424A41AA4223D1D9693140891B5F
:102F80004A424A41AA42E3D01BE0084605B0F0BDE0
:102F9000FEF744FD032005B0F0BD402E049001D0A3
:102FA000802E14D1FEF73AFDC01BA0420CD8049825
:102FB00000680168C0693040801B41424141A9421C
:102FC000F0D0039805B0F0BD032005B0F0BD783017
:102FD000019001200090C002029006E0C8693040D4
:102FE000801B41424141A942EBD1FEF717FDC11BB5
:102FF0000320A1423ED8049909680A685207EDD51A
:10300000CA69120738D4CA69029B1A42E6D0029AEA
:103010000A62EFF31082012181F3108809235B011A
:10302000049C246825689D43256082F31088EFF393
:10303000108281F31088049B1B689C688C439C6001
:10304000049B82F310881A6E012A0BD1EFF31082D1
:1030500081F3108819680B681024A3430B60049B4C
:1030600082F310882021019CA16000221A669A66D2
:103070002270E16005B0F0BD08250D62EFF310810C
:10308000009880F3108809225201049B1B681C6879
:1030900094431C6081F31088EFF3108180F3108853
:1030A000049A1268936883439360049B81F31088A9
:1030B000196E01290CD1EFF31081012282F31088DF
:1030C0001A6813681024A3431360049B81F31088CB
:1030D0002021019A91600021196699661170D560CE
:1030E00005B0F0BD80B5CD48FFF794F880BDC0466F
:1030F000F0B581B0CB4A1179CC4D61290CD128783B
:10310000002845D1EC697F20C105204600F0E1FA96
:1031100000283DD1344913E02878642915D10028CE
:1031200013D16868A968C9434018FDF7C1FA014680
:10313000EC69204600F0B7FA002829D17F20C105AC
:10314000204600F0F5FAE86122E072290DD100284E
:103150000BD1B748002111708321C905E8612962AC
:1031600041200006E860286112E0212905D070297D
:103170000ED10121484028700AE0AE490020887035
:10318000FF2002300880A5480322A74BFFF756FB1B
:10319000A84F032000903870A44EF068FDF73EFA67
:1031A000044678703069FDF739FA0546B870F06961
:1031B000FDF734FA0646F8709C48006AFDF72EFACF
:1031C0003871B9797A794A406A4062407240424027
:1031D000009842407A719348C11C90480122FFF741
:1031E000B3FA01B0F0BDC046000080BFA4B0FEF746
:1031F00023FC18AC201D2C21FDF7E3F800252095B9
:1032000010201C9001261B960220189013951295F1
:10321000119510952046FEF7E3FD002803D0EFF34B
:10322000108072B6FEE71795169515950720149035
:1032300014A82946FEF7FCFC002803D0EFF3108009
:1032400072B6FEE711950F960FA8FEF761FC0028F5
:1032500003D0EFF3108072B6FEE770480C21704A7D
:1032600005624562E1235B022CC005604560816018
:10327000C56005610C38FFF7C3F9002803D0EFF3F0
:10328000108072B6FEE709960B95664DEC1C634EF6
:10329000032230462146FFF757FA0A94687800283F
:1032A00007D1032230462146FFF74EFA68780028FE
:1032B000F7D05E4A1078002804D0A8780028F0D112
:1032C0000522EFE7287800280B990CD08320C3054E
:1032D0005748D0610E93136241200706D7601761EB
:1032E0003C4608465DE05569D1682846164600F020
:1032F0001FFA0446F060B06931690D9000F018FAC9
:10330000074630617F20C6052046314600F0E1F9CE
:1033100000280AD145484068801EFDF7C9F90146DA
:10332000204600F0E3F9002804D10998C007454081
:103330003E4845613846314600F0C0F9002801D0CA
:103340003A4E06E00998C0070D994140374E0D915D
:10335000B161316A38460E9100F09AF9002818D010
:10336000F5692046294600F0C1F9002811D1B0685E
:10337000FDF79EF90146284600F0DAF9014620469D
:1033800000F091F9002804D10120C0070D994140B7
:10339000B16138460E9900F091F900280998214D45
:1033A00000D028702046FDF70FF90D900C9138469B
:1033B000FDF70AF907460D461C48C069FDF704F9F8
:1033C00004460E460E98FDF7FFF80D9A00920C9AEF
:1033D000019202970395134D049405960690079168
:1033E0000322144F38461449FCF714FF82B20B4EE7
:1033F000304639460C4C2346FFF720FA0622304669
:1034000039462346FFF71AFA3220FEF717FA0A9CCC
:103410006878002800D04CE743E7C0462C01002024
:103420000038014090000020FFFF00000000002055
:103430000000C040B40100208C3A000843088B42D1
:103440001AD3002203098B4279D3030A8B425ED33D
:10345000030B8B4242D3030C8B4227D30902FF227A
:1034600012BA030C8B4202D31212090203D0030BCF
:103470008B4233D31AE0D3E0411A8041401C70479D
:1034800003460B4371D443088B42F5D30022030952
:103490008B4254D3030A8B4239D3030B8B421DD387
:1034A000030C8B4202D394466EE0090AC30B8B4295
:1034B00001D3CB03C01A5241830B8B4201D38B0340
:1034C000C01A5241430B8B4201D34B03C01A5241E5
:1034D000030B8B4201D30B03C01A5241C30A8B4228
:1034E00001D3CB02C01A5241830A8B4201D38B0213
:1034F000C01A5241430A8B4201D34B02C01A5241B7
:10350000030A8B4201D30B02C01A5241CDD2C30928
:103510008B4201D3CB01C01A524183098B4201D3A4
:103520008B01C01A524143098B4201D34B01C01A8F
:10353000524103098B4201D30B01C01A5241C30807
:103540008B4201D3CB00C01A524183088B4201D376
:103550008B00C01A524143088B4201D34B00C01A62
:103560005241411A524110007047CA0F00D04942DF
:10357000031000D34042534000229C4603098B4273
:103580002DD3030A8B4212D38901FC2212BA030AFB
:103590008B420CD3890192118B4208D3890192117D
:1035A0008B4204D3890137D0921100E08909C30905
:1035B0008B4201D3CB01C01A524183098B4201D304
:1035C0008B01C01A524143098B4201D34B01C01AEF
:1035D000524103098B4201D30B01C01A5241C30867
:1035E0008B4201D3CB00C01A524183088B4201D3D6
:1035F0008B00C01A5241D9D243088B4201D34B00F1
:10360000C01A5241411A00D2014652411046634647
:103610005B1000D34042704763465B1000D34042CA
:1036200001B50021004201D0C9430846C046C0464A
:1036300002BDF8B5040C8BB2264682B25E4310463A
:1036400058430D0C370C3604002180191646794179
:103650006E43370C36048019264679416E4389192A
:10366000F8BD00004900CA020243100000D0042047
:103670004A0D01D001221043044A490D914201D163
:1036800002210843012800D105207047FF070000F0
:1036900010B500F093F8EFF30080400001D5012051
:1036A00010BD002010BD10B500F0B2F8EFF300809F
:1036B000800001D5012010BD002010BD10B500F024
:1036C000A7F8EFF300804000800F012800D0002011
:1036D00010BD10B500F0C6F8EFF300804000800F79
:1036E000012801D0012010BD002010BD10B500F050
:1036F000B9F8EFF30080800001D4012010BD002054
:1037000010BD000010B500290AD00878002807D0A5
:1037100005487844FDF77CFE002801D0002010BD4C
:103720000248784410BD0000CA030000C203000034
:1037300070B50125ED0704004C4020D4441A01D295
:10374000001B0919C60D4B00F2B2FF2A29D01B0E2F
:103750002CD000020C0228432C43D31ADC4005195C
:1037600010D2280A02D3401C6D0611D0761EF60531
:103770008019FF2A00DA70BDC00DC00570BD694018
:1037800000F0A0F801200543C541521C761CE8E773
:1037900064089C40C90161408900E7D10124A0432D
:1037A000E4E71B0E440200D0034870BD002AFCD1A0
:1037B000C00FC00770BD00BF0000C07F0123DB0544
:1037C00002000A430DD4DA4203D49A4207D4884255
:1037D0007047D84214D4D94212D4884270478042EC
:1037E0007047DA4203D59A42F9D5814270475B00AF
:1037F0004200DA4204D24A00DA4201D281427047E2
:1038000010B5024AFDF7A6FD10BD00BF0900120465
:103810000123DB0502000A430DD4DA4203D49A42A5
:1038200007D488427047D84214D4D94212D488426F
:10383000704780427047DA4203D59A42F9D58142F7
:1038400070475B004200DA4204D24A00DA4201D2F9
:103850008142704710B5024AFDF77CFD10BD00BFE4
:10386000090013040123DB0502000A430DD4DA42E8
:1038700003D49A4207D488427047D84214D4D9421C
:1038800012D48842704780427047DA4203D59A4288
:10389000F9D5814270475B004200DA4204D24A0007
:1038A000DA4201D28142704710B5024AFDF752FD5B
:1038B00010BD00BF0900160470B50125ED07040016
:1038C0004C4022D4441A02D26C40001B0919C60D88
:1038D0004B00F2B2FF2A4BD01B0E50D000020C025C
:1038E000A8432C43D31ADC40051B05D5AD0019D3E2
:1038F0006D08761E521E37D0F605280A01D28019AF
:1039000070BD70416D0603D070BD6940FFF716FFB2
:103910009C4009026140490001D0401E70BD012455
:10392000A04370BD6D081DD001202B0C01D12D04CA
:1039300010302B0E01D12D0208302B0F01D12D019B
:10394000001DAB0F01D1AD00801CEB0F01D16D004C
:10395000401C361A121A6D00680AF5054019012A32
:1039600002DB70BD002070BDC036300AC00770BDDC
:103970001B0E440201D1FF2B00D1024870BD002A6A
:10398000F0D070BD0000C07F03B402487844844684
:1039900003BC604785CFFFFF3031323334353637D3
:1039A0003839414243444546403058003031323383
:1039B0003435363738396162636465664030780083
:1039C00002400000000000A00000000005400000D0
:1039D000000000C8000000000C4000000000409CF7
:1039E00000000000194000000020BCBE00000000E4
:1039F00034400000BFC91B8E00000004B540000029
:103A0000504BCFD06607E2CF010000006C410000B0
:103A10003E8251AADFEEA73401000000D942000027
:103A2000DCB5A0E23A301F97FFFFFFFFB44500006E
:103A3000FD25A0C8E9A3C14FFFFFFFFFFF3F000026
:103A40000000008000000000FF3F00000000008038
:103A5000000000000000000000000000010203045C
:103A60000607080900000000010203040203040520
:103A7000060708090A0B0C0D0E0F101001020304B3
:103A800005060708090A0B0C0D0E0F1020636F6462
:103A9000652025782C2062782025662C20627920EC
:103AA0002566202C2070782025662C207079202512
:103AB0006620202D2D2D2D2D00000000F83A000845
:103AC000000000203000000018010008283B00081A
:103AD0003000002008080000380100081C00000029
:103AE00043000000F8FFFFFF0C0000000E00000084
:103AF0000F0000002E000000010000002800000060
:103B00000400000000000041000000410000003FF0
:103B10000000003F0000C0400000804101000000A4
:083B20000400000000127A000D
:04000005080000BD32
:00000001FF
